S01600006F72616E677574616E5F617070312E737265636E
S11300000C9446000C9465000C9465000C946500F7
S11300100C9465000C9465000C9465000C946500C8
S11300200C9465000C9465000C9465000C94B10369
S11300300C9465000C9465000C9465000C946500A8
S11300400C9465000C9465000C9465000C94650098
S11300500C9465000C9465000C9465000C94650088
S11300600C9465000C9465000C9465000C94650078
S11300700C9465000C9465000C9465000C94650068
S11300800C9465000C9465000C94650011241FBE4B
S1130090CFEFD0E4DEBFCDBF11E0A0E0B1E0EAEFE6
S11300A0F0E100E00BBF02C007900D92A431B1074C
S11300B0D9F721E0A4E1B1E001C01D92AF33B2074A
S11300C0E1F70E94B8000C947B080C94000088307F
S11300D058F491E001C0990F8A95EAF7892FAAE2B2
S11300E0B0E0EBE2F0E031C0803160F498EF980FBB
S11300F081E001C0880F9A95EAF7A4E2B0E0E5E256
S1130100F0E023C0883160F490EF980F81E001C0E3
S1130110880F9A95EAF7A7E2B0E0E8E2F0E015C0AC
S1130120803270F42FE130E0281B310981E001C0F6
S1130130880F2A95EAF7A1E2B0E0E2E2F0E005C018
S113014080E0A0E0B0E0E0E0F0E06F3F19F49081DF
S1130150982709C0662319F09081982B04C0208148
S1130160982F9095922390839C91982B9C9308951B
S11301700E9478030E94FE0188E091E09F938F9390
S11301800E94A5050F900F908CE20E94A603C82F31
S113019085FF02C06FEF01C061E081E00E9467004B
S11301A0C2FF02C06FEF01C060E084E10E946700FB
S11301B08AEF90E00E94F903E7CF80E090E0089591
S11301C081E090E06F9364E06A95F1F76F91019795
S11301D0C9F708950F931F93CF93DF9317B13D98F9
S11301E02898299AC0E0D0E00E94E0002A9A0E9450
S11301F0E00006B12A980E94E0002A9A0E94E000DA
S11302002A98249605FF10C09E0140E050E080919A
S1130210180190911901A0911A01B0911B0128179E
S113022039074A075B0700F39E0140E050E08091E4
S1130230180190911901A0911A01B0911B0128177E
S113024039074A075B0728F082E390E0A0E0B0E0BA
S113025004C080E395E7A0E0B0E080931801909398
S11302601901A0931A01B0931B0117B9DF91CF9123
S11302701F910F91089528B190E08F709070880FAE
S1130280991F880F991F237C282B28B92A9A0E942A
S1130290E0002A980E94E0000895A2E0B0E0E3E5BF
S11302A0F1E00C940904182F4A8369830E94C80161
S11302B00E94EA00F7B008B1299869814A8166234F
S11302C011F0289A01C0289887B18C6387B941300E
S11302D029F0812F82958F700E943B01812F8F70AE
S11302E00E943B01F7B808B92296E5E00C94250476
S11302F060E042E00E944D01089561E042E00E9406
S11303004D01089560E041E00E944D0108953D983B
S1130310459A80E395E7A0E0B0E0809318019093BC
S11303201901A0931A01B0931B01209A219A229AD1
S11303308EE190E00E94F90383E00E94820186E04E
S113034090E00E94F90383E00E94820182E090E041
S11303500E94F90383E00E94820182E090E00E94FF
S1130360F90382E00E94820182E090E00E94F90396
S113037088E20E94780188E00E94780181E00E946E
S1130380780186E00E9478018CE00E94780108954B
S113039080911C01882329F481E080931C010E9430
S11303A08701089581E00E94780180911401909161
S11303B01501009711F1A0E0B0E208C0E09114012A
S11303C0F0911501E20FF31FB083AF5F2A2F30E0E5
S11303D08091000190E001976091010170E0869F97
S11303E0A001879F500D969F500D112424173507A7
S11303F02CF3109217011092160108950E94D20155
S11304000895A5E0B0E0E7E0F2E00C940B04182FA7
S113041080E8898380EC8A8384E98B8384ED8C83F0
S1130420FE01E60FF11D8181810F6D830E94780129
S1130430109317016D81609316012596E3E00C94E7
S11304402704A0E0B0E0E7E2F2E00C940604D82E22
S11304508091140190911501009709F4FAC02D2D93
S11304602A3009F443C02830C9F48091170181501F
S1130470809317018F3F51F480911601815080932E
S1130480160180910101815080931701809116011A
S11304908F3F09F0D8C010921601D3C08D2D0E9451
S11304A07D01809116018823B9F090E00197409175
S11304B0010150E0849F9001859F300D949F300D81
S11304C0112480911701E0911401F0911501E20FBC
S11304D0F31FE80FF11DD082809117018F5F809385
S11304E0170190910101891709F0B3C040911601D9
S11304F0242F30E08091000190E0019728173907FC
S113050009F09CC0C0E0D0E041C080E06C2F0E94A4
S11305100102CC248E010F5F1F4F33C0EC2CFF244B
S113052030E0C29FC001C39F900DD29F900D112453
S1130530E0911401F0911501EE0DFF1DE80FF91F74
S113054080810E947D018091140190911501209178
S1130550010130E0C29FF001C39FF00DD29FF00D66
S113056011248E0D9F1DE80FF91F029FD001039FD8
S1130570B00D129FB00D1124A80FB91F8C91808368
S1130580C39420910101C21648F2E8016091000170
S1130590862F90E00297C817D9070CF4B6CF6230C3
S11305A0E0F1625080E00E94010200E010E231C0FC
S11305B0C02FD0E08091000190E0029750E0849F2A
S11305C09001859F300D949F300D1124E09114010A
S11305D0F0911501EC0FFD1FE20FF31F80810E94C3
S11305E07D018091000190E002974091010150E06B
S11305F0849F9001859F300D949F300D1124E091CC
S11306001401F0911501EC0FFD1FE20FF31F10838D
S11306100F5F40910101041758F26091000161508D
S113062080E00E94010210E004C080E20E947D018B
S11306301F5F809101011817C0F303C04F5F4093FF
S113064016011092170180911701609116010E9402
S113065001022D2D332727FD3095C901CDB7DEB713
S1130660E8E00C9422048091140190911501009704
S113067011F00E94CB042091000130E02150304061
S11306808091010190E0AC01249FC001259F900D51
S1130690349F900D11240E9433049093150180938C
S11306A01401009721F1A0E0B0E208C0E091140128
S11306B0F0911501E20FF31FB083AF5F2A2F30E0F2
S11306C08091000190E001976091010170E0869FA4
S11306D0A001879F500D969F500D112424173507B4
S11306E02CF381E292E06DED70E00E945A050895CA
S11306F00E943303089587B1837D87B988B18C62E2
S113070088B985E090E06F9364E06A95F1F76F91A2
S11307100197C9F7089580911D01882329F481E088
S113072080931D010E947B030895A1E0B0E0EBE9F2
S1130730F3E00C940C0489830E948B0396B190958A
S1130740898189232196E2E00C9428040E94950370
S113075008956F9364E06A95F1F76F910197C9F773
S113076008952F928F939F932FB680912B01909190
S11307702C01019680932B0190932C0190E08091A1
S11307802D01891F80932D01909133019C5F9093DB
S113079033018091320180519742C0F0909333012C
S11307A08093320180912E0190912F0101968093C4
S11307B02E0190932F0190E080913001891F809346
S11307C0300180913101891F809331012FBE9F91A7
S11307D08F912F901895CF93DF93EC0105C088EE8D
S11307E093E00E94A90321972097C9F7DF91CF9145
S11307F008950E94EB0308952F923F924F925F92C7
S11308006F927F928F929F92AF92BF92CF92DF921C
S1130810EF92FF920F931F93CF93DF93CDB7DEB781
S1130820CA1BDB0B0FB6F894DEBF0FBECDBF099415
S11308302A88398848885F846E847D848C849B846C
S1130840AA84B984C884DF80EE80FD800C811B817A
S1130850AA81B981CE0FD11D0FB6F894DEBF0FBEA9
S1130860CDBFED010895CF93DF938230910510F44D
S113087082E090E0E0913701F091380120E030E02F
S1130880A0E0B0E0309739F1408151814817590711
S1130890B8F04817590771F482819381109729F0B1
S11308A013969C938E9312972CC090933801809347
S11308B0370127C02115310531F04217530718F0CD
S11308C0A901DB0101C0EF019A01BD01DF01028032
S11308D0F381E02DD7CF21153105F9F0281B390B11
S11308E02430310580F48A819B816115710521F0E2
S11308F0FB019383828304C0909338018093370172
S1130900FE01329644C0FE01E20FF31F81939193DE
S113091022503109398328833AC02091350130911E
S11309203601232B41F420910401309105013093C9
S113093036012093350120910201309103012115E4
S1130940310541F42DB73EB740910601509107019E
S1130950241B350BE0913501F0913601E217F307C2
S1130960A0F42E1B3F0B2817390778F0AC014E5F1B
S11309705F4F2417350748F04E0F5F1F5093360121
S1130980409335018193919302C0E0E0F0E0CF0100
S1130990DF91CF910895CF93DF93009709F487C037
S11309A0FC01329713821282C0913701D091380131
S11309B0209781F420813181280F391F80913501DE
S11309C0909136018217930779F5F0933601E093FD
S11309D035016DC0DE0120E030E0AE17BF0750F4F2
S11309E012964D915C9113979D014115510509F1A2
S11309F0DA01F3CFB383A28340815181840F951F21
S1130A008A179B0771F48D919C911197840F951F00
S1130A1002969183808312968D919C911397938370
S1130A2082832115310529F4F0933801E0933701CD
S1130A303EC0D9011396FC93EE9312974D915D91AC
S1130A40A40FB51FEA17FB0779F480819181840F05
S1130A50951F0296D90111969C938E93828193815E
S1130A6013969C938E931297E0E0F0E08A819B8129
S1130A70009719F0FE01EC01F9CFCE01029628810E
S1130A803981820F931F2091350130913601281747
S1130A90390769F4309729F410923801109237011C
S1130AA002C013821282D0933601C0933501DF91C4
S1130AB0CF9108950F931F93CF93DF93EC018B0194
S1130AC0009731F46115710519F480E090E038C0A5
S1130AD06EE070E081E090E00E94B207FC010097B4
S1130AE0A1F380E883830115110571F01387028750
S1130AF081E883838091390190913A01892B21F413
S1130B00F0933A01E09339012097C9F0D187C08767
S1130B1083818260838380913B0190913C01892B86
S1130B2071F4F0933C01E0933B0180913D0190917D
S1130B303E01892B21F4F0933E01E0933D01CF0166
S1130B40DF91CF911F910F910895CF93DF93CDB78C
S1130B50DEB7FE01359661917191AF0180913B0141
S1130B6090913C010E94B705DF91CF9108952F9297
S1130B703F924F925F926F927F928F929F92AF9229
S1130B80BF92CF92DF92EF92FF920F931F93CF9376
S1130B90DF93CDB7DEB72C970FB6F894DEBF0FBE48
S1130BA0CDBF7C016B018A01FC011782168283810F
S1130BB081FFBDC1CE0101964C01F7019381F6017D
S1130BC093FD859193FF81916F01882309F4ABC153
S1130BD0853239F493FD859193FF81916F018532BC
S1130BE029F4B70190E00E94EB07E7CF512C312C98
S1130BF020E02032A0F48B3269F030F4803259F0D6
S1130C00833269F420612CC08D3239F0803339F499
S1130C10216026C02260246023C0286021C027FDF3
S1130C2027C030ED380F3A3078F426FF06C0FAE0DA
S1130C305F9E300D1124532E13C08AE0389E300D70
S1130C401124332E20620CC08E3221F426FD6BC198
S1130C50206406C08C3611F4206802C0883641F442
S1130C60F60193FD859193FF81916F018111C1CFAD
S1130C70982F9F7D9554933028F40C5F1F4FFFE30A
S1130C80F9830DC0833631F0833771F0833509F071
S1130C905BC022C0F801808189830E5F1F4F44240A
S1130CA04394512C540115C03801F2E06F0E711CAD
S1130CB0F801A080B18026FF03C0652D70E002C05A
S1130CC06FEF7FEFC5012C870E94E0072C018301A1
S1130CD02C852F77222E17C03801F2E06F0E711C7D
S1130CE0F801A080B18026FF03C0652D70E002C02A
S1130CF06FEF7FEFC5012C870E94CE072C012C8556
S1130D002068222E830123FC1BC0832D90E048160B
S1130D105906B0F4B70180E290E00E94EB073A94E0
S1130D20F4CFF50127FC859127FE81915F01B7017E
S1130D3090E00E94EB0731103A94F1E04F1A510809
S1130D404114510471F7E5C0843611F0893639F540
S1130D50F80127FF07C060817181828193810C5F54
S1130D601F4F08C060817181882777FD8095982F77
S1130D700E5F1F4F2F76B22E97FF09C09095809576
S1130D80709561957F4F8F4F9F4F2068B22E2AE058
S1130D9030E0A4010E941D08A82EA81844C085377D
S1130DA029F42F7EB22E2AE030E025C0F22FF97FFD
S1130DB0BF2E8F36C1F018F4883579F0B4C080376F
S1130DC019F0883721F0AFC02F2F2061B22EB4FE66
S1130DD00DC08B2D8460B82E09C024FF0AC09F2F3C
S1130DE09660B92E06C028E030E005C020E130E06E
S1130DF002C020E132E0F801B7FE07C060817181D2
S1130E00828193810C5F1F4F06C06081718180E0F5
S1130E1090E00E5F1F4FA4010E941D08A82EA81881
S1130E20FB2DFF77BF2EB6FE0BC02B2D2E7FA514F6
S1130E3050F4B4FE0AC0B2FC08C02B2D2E7E05C0AF
S1130E407A2C2B2D03C07A2C01C0752C24FF0DC0E5
S1130E50FE01EA0DF11D8081803311F4297E09C061
S1130E6022FF06C07394739404C0822F867809F01D
S1130E70739423FD13C020FF06C05A2C731418F476
S1130E80530C5718732C731468F4B70180E290E084
S1130E902C870E94EB0773942C85F5CF731410F400
S1130EA0371801C0312C24FF12C0B70180E390E051
S1130EB02C870E94EB072C8522FF17C021FF03C05B
S1130EC088E590E002C088E790E0B7010CC0822F6B
S1130ED0867859F021FD02C080E201C08BE227FD33
S1130EE08DE2B70190E00E94EB07A51438F4B70136
S1130EF080E390E00E94EB075A94F7CFAA94F401A0
S1130F00EA0DF11D8081B70190E00E94EB07A1106A
S1130F10F5CF332009F451CEB70180E290E00E946E
S1130F20EB073A94F6CFF7018681978102C08FEFE1
S1130F309FEF2C960FB6F894DEBF0FBECDBFDF91A6
S1130F40CF911F910F91FF90EF90DF90CF90BF90C2
S1130F50AF909F908F907F906F905F904F903F9055
S1130F602F9008950F931F93CF93DF93869F800153
S1130F70879F100D969F100D1124C8010E94330401
S1130F80EC01009729F0A80160E070E00E94D90705
S1130F90CE01DF91CF911F910F910895FC0105902F
S1130FA0615070400110D8F7809590958E0F9F1F67
S1130FB00895DC0101C06D9341505040E0F708955D
S1130FC0FC016150704001900110D8F78095909514
S1130FD08E0F9F1F08950F931F93CF93DF93182FA6
S1130FE0092FEB018B8181FD03C08FEF9FEF20C0A0
S1130FF082FF10C04E815F812C813D8142175307CF
S11310007CF4E881F9819F012F5F3F4F3983288366
S1131010108306C0E885F985812F0995892B29F766
S11310202E813F812F5F3F4F3F832E83812F902F4F
S1131030DF91CF911F910F910895FA01AA272830CB
S113104051F1203181F1E8946F936E7F6E5F7F4F91
S11310508F4F9F4FAF4FB1E03ED0B4E03CD0670F0D
S1131060781F891F9A1FA11D680F791F8A1F911D60
S1131070A11D6A0F711D811D911DA11D20D009F4B0
S113108068943F912AE0269F11243019305D3193F2
S1131090DEF6CF010895462F4770405D4193B3E0DB
S11310A00FD0C9F7F6CF462F4F70405D4A3318F082
S11310B0495D31FD4052419302D0A9F7EACFB4E033
S11310C0A6959795879577956795BA95C9F70097EB
S11310D06105710508959B01AC010A2E069457958C
S11310E0479537952795BA95C9F7620F731F841FE3
S10D10F0951FA01D0895F894FFCF8A
S11310FA021000003F01200057616974696E672E6F
S107110A2E2E000081
S9030000FC
