:1000000045C0000061C000005FC000005DC000008E
:100010005BC0000059C0000057C0000055C0000080
:1000200053C0000051C000004FC000000C94150CDC
:100030004BC000002BC1000047C0000066C100009B
:1000400044C0000041C000003FC000003DC00000AF
:100050000C94FD090C94BD0B37C0000035C00000A6
:1000600033C0000031C000002FC000002DC00000D0
:100070000C94270A0C94E50B27C0000025C0000053
:1000800041C0000021C000001FC0000011241FBE9D
:10009000CFEFD0E4DEBFCDBF11E0A0E0B1E0E4ECF3
:1000A000F4E200E00BBF02C007900D92A438B10744
:1000B000D9F722E0A4E8B1E001C01D92A632B20750
:1000C000E1F725D40C9460129BCF1F920F920FB6CC
:1000D0000F9211248F9381E08093A4011092A501C7
:1000E0001092A6011092A7011092A8011092A901E6
:1000F0001092AA011092AB018F910F900FBE0F903A
:100100001F9018951F920F920FB60F921124AF9265
:10011000BF92CF92DF92EF92FF920F931F932F9394
:100120003F934F935F936F937F938F939F93AF937F
:1001300078942091AC013091AD014091AE01509185
:10014000AF016091B0017091B1018091B2019091C5
:10015000B301A1E00E94CB0D2093AC013093AD011F
:100160004093AE015093AF016093B0017093B10121
:100170008093B2019093B3012091AC013091AD0115
:100180004091AE015091AF016091B0017091B10109
:100190008091B2019091B301A0902601B090270107
:1001A000C0902801D0902901E0902A01F0902B0105
:1001B00000912C0110912D010E94E00DB0F12091D1
:1001C000C4013091C5014091C6015091C7016091B1
:1001D000C8017091C9018091CA019091CB010E9420
:1001E000CB0D2093C4013093C5014093C6015093B9
:1001F000C7016093C8017093C9018093CA019093AD
:10020000CB011092AC011092AD011092AE01109290
:10021000AF011092B0011092B1011092B201109290
:10022000B30182B191E0892782B983E390E0109213
:10023000A3011092A2012091A2013091A3012639BD
:10024000384258F42091A2013091A3012F5F3F4F13
:100250003093A3012093A201EECF0197009739F7C5
:10026000AF919F918F917F916F915F914F913F914E
:100270002F911F910F91FF90EF90DF90CF90BF9043
:10028000AF900F900FBE0F901F9018951F920F9276
:100290000FB60F9211242F933F934F935F936F9359
:1002A0007F938F939F93AF932091BC013091BD01B9
:1002B0004091BE015091BF016091C0017091C10198
:1002C0008091C2019091C301A1E00E94CB0D2093C7
:1002D000BC013093BD014093BE015093BF016093B8
:1002E000C0017093C1018093C2019093C301AF918B
:1002F0009F918F917F916F915F914F913F912F913E
:100300000F900FBE0F901F9018951F920F920FB66F
:100310000F9211242F933F934F935F936F937F938B
:100320008F939F93AF932091BC013091BD01409179
:10033000BE015091BF016091C0017091C1018091D7
:10034000C2019091C301A1E00E94CB0D2093BC019A
:100350003093BD014093BE015093BF016093C00133
:100360007093C1018093C2019093C301AF919F919B
:100370008F917F916F915F914F913F912F910F904E
:100380000FBE0F901F9018952F923F924F925F9241
:100390006F927F928F929F92AF92BF92CF92DF9295
:1003A000EF92FF920F931F93CF93DF9300D000D073
:1003B0001F92CDB7DEB79FE9980F9A3108F48052AB
:1003C0008A3521F0982F9B7F903519F480931B027A
:1003D0006EC2823531F0873421F0893511F08134D5
:1003E00019F48093F50163C290ED980F9A3058F498
:1003F0009091A101E92FF0E0EA5EFD4F80839F5FBD
:100400009093A10154C2813509F051C286E192E076
:100410000E942B0F8C01A0D460E080E0BCD41F931D
:100420000F938AE491E09F938F930E949A0F10920A
:10043000A10180911B020F900F900F900F908035BB
:1004400009F0E9C08091F501873409F4C5C008F0CE
:1004500077C0813409F02BC27FD460E080E09BD468
:10046000E091C401F091C501A091C601B091C7010E
:10047000F090C801E090C9011091CA010091CB0130
:100480008091CC019091CD012091CE013091CF018E
:100490004091D0015091D1016091D2017091D3016E
:1004A0000F931F93EF92FF92BF93AF93FF93EF933E
:1004B0007F936F935F934F933F932F939F938F936C
:1004C00086E591E09F938F930E949A0F61E080E010
:1004D00062D4E091BC01F091BD01A091BE01B09148
:1004E000BF01F090C001E090C1011091C2010091E4
:1004F000C3018091C4019091C5012091C601309142
:10050000C7014091C8015091C9016091CA01709121
:10051000CB010F931F93EF92FF92BF93AF93FF9383
:10052000EF937F936F935F934F933F932F939F939B
:100530008F938FE591E09F938F930E949A0F46C00F
:10054000823511F1893509F0B2C106D460E080E04E
:1005500022D48091C4019091C5012091C6013091AF
:10056000C7014091C8015091C9016091CA017091C1
:10057000CB017F936F935F934F933F932F939F9301
:100580008F9380E791E01EC0E7D360E080E003D462
:100590008091CC019091CD012091CE013091CF017D
:1005A0004091D0015091D1016091D2017091D3015D
:1005B0007F936F935F934F933F932F939F938F936B
:1005C0008AE691E09F938F930E949A0F0FB6F8945A
:1005D000DEBF0FBECDBF6BC1BFD360E080E0DBD319
:1005E0008091BC019091BD012091BE013091BF016D
:1005F0004091C0015091C1016091C2017091C3014D
:100600007F936F935F934F933F932F939F938F931A
:1006100084E691E0D7CF8A3509F062C08091F50178
:10062000873409F44CC020F5813409F040C11092A0
:10063000CC011092CD011092CE011092CF011092F8
:10064000D0011092D1011092D2011092D3011092D8
:10065000C4011092C5011092C6011092C7011092F8
:10066000C8011092C9011092CA011092CB0127C093
:100670008235A1F0893509F01AC11092C401109297
:10068000C5011092C6011092C7011092C8011092C4
:10069000C9011092CA011092CB0109C11092CC017C
:1006A0001092CD011092CE011092CF011092D00184
:1006B0001092D1011092D2011092D301F8C0109281
:1006C000BC011092BD011092BE011092BF011092A8
:1006D000C0011092C1011092C2011092C301E7C083
:1006E000843509F0E4C08091F501873409F45DC0D8
:1006F00078F5813409F0DBC048010093360190920F
:100700003701109238011092390110923A0110927B
:100710003B0110923C0110923D01C80164E670E07B
:100720000E94D40C8B016093260110932701109234
:1007300028011092290110922A0110922B01109287
:100740002C0110922D0180922E0190922F0131C028
:100750008235D1F0893509F0AAC0C80164E670E09D
:100760000E94D40C8B0160932601109327011092F4
:1007700028011092290110922A0110922B01109247
:100780002C0110922D0193C0009336011093370174
:10079000109238011092390110923A0110923B01E7
:1007A00010923C0110923D0182C000932E011093E3
:1007B0002F011092300110923101109232011092EB
:1007C0003301109234011092350180902E019090E7
:1007D0002F01E0913001F0913101B0913201A091EF
:1007E0003301809134018C83909135019D83940174
:1007F000AF016B2F7A2F01E00E94A90D2983232ED0
:10080000342E452E562E672E782E9A83432D542D46
:10081000652D762D872D02E00E94A90D59016A01F0
:100820007B018C012981322D432D542D652D762D90
:10083000872D9A810E94C20D59016A017B01782E91
:10084000192F05E00E94A90D072D0E94D70D59010F
:100850006A017B01782E192F06E00E94A90D072D51
:100860000E94D70D54016F01EB2EFA2E0C811D81D1
:100870000E94C20DE8EEAE2EF3E0BF2EC12CD12CAB
:10088000E12CF12C00E010E00E94160D4901880CCB
:10089000991C9092870080928600809186009091AA
:1008A00087009695879590938900809388000F9094
:1008B0000F900F900F900F90DF91CF911F910F919C
:1008C000FF90EF90DF90CF90BF90AF909F908F9070
:1008D0007F906F905F904F903F902F90089582E0AF
:1008E000A8D3E091D4018E1789F0F0E0EB52FE4FCF
:1008F000808190E049DD8091D4018F3119F410920C
:10090000D401EDCF8F5F8093D401E9CF089581B1F9
:10091000856081B9559A8BD386E791E09F938F9339
:100920000E949A0F8BB190E289278BB982B194E033
:10093000892782B982B191E0892782B90F900F90FF
:1009400080E590E01092A3011092A2012091A201F3
:100950003091A3012639384258F42091A2013091F8
:10096000A3012F5F3F4F3093A3012093A201EECF4D
:100970000197009739F78BB190E289278BB982B143
:1009800094E0892782B982B191E0892782B9E4D1C4
:1009900084B5826084BD85B5846085BD8EE487BDE5
:1009A00022E020936E0010929000809191008B6065
:1009B0008093910082E19AE7909399008093980048
:1009C00020937100809180008268809380008091E4
:1009D00081008D618093810086E998E9909387007A
:1009E00080938600809186009091870096958795E8
:1009F000909389008093880083E080936F007894BF
:100A000040E855E260E070E082E007D640E265ED44
:100A100071E082E0F0D4C4E02091A4013091A501FE
:100A20004091A6015091A7016091A8017091A90180
:100A30008091AA019091AB01A0E00E94E90D09F418
:100A40008BC02091B4013091B5014091B601509115
:100A5000B7016091B8017091B9018091BA0190918C
:100A6000BB01A1E00E94CB0D2093B4013093B501EE
:100A70004093B6015093B7016093B8017093B901E8
:100A80008093BA019093BB012091B4013091B501DC
:100A90004091B6015091B7016091B8017091B901D0
:100AA0008091BA019091BB01A0903601B0903701BE
:100AB000C0903801D0903901E0903A01F0903B01AC
:100AC00000913C0110913D010E94E00DA8F182B11E
:100AD0008C2782B92091CC013091CD014091CE017B
:100AE0005091CF016091D0017091D1018091D201DC
:100AF0009091D3010E94CB0D2093CC013093CD0176
:100B00004093CE015093CF016093D0017093D101F7
:100B10008093D2019093D3011092B4011092B50149
:100B20001092B6011092B7011092B8011092B9015B
:100B30001092BA011092BB011092A4011092A5016B
:100B40001092A6011092A7011092A8011092A9017B
:100B50001092AA011092AB010ED6C1DE5DCF80E0EB
:100B600090E0089581E090E06F9364E06A95F1F77A
:100B70006F910197C9F708950F931F93CF93DF9358
:100B800017B13D982898299AC0E0D0E0EBDF2A9A67
:100B9000E9DF06B12A98E6DF2A9AE4DF2A9824964C
:100BA00005FF10C09E0140E050E0809188019091C7
:100BB0008901A0918A01B0918B01281739074A0752
:100BC0005B0720F39E0140E050E080918801909106
:100BD0008901A0918A01B0918B01281739074A0732
:100BE0005B0728F082E390E0A0E0B0E004C080E37F
:100BF00095E7A0E0B0E08093880190938901A093ED
:100C00008A01B0938B0117B9DF91CF911F910F919A
:100C1000089528B190E08F709070880F991F880F09
:100C2000991F237C282B28B92A9A9CDF2A989ACFCF
:100C3000A2E0B0E0EDE1F6E062C7182F4A836983D5
:100C400057D09ADFF7B008B1299869814A816623A5
:100C500011F0289A01C0289887B18C6387B9413078
:100C600021F0812F82958F70D4DF812F8F70D1DF9B
:100C7000F7B808B92296E5E05EC760E042E0D8CF59
:100C800061E042E0D5CF60E041E0D2CF3D98459AA7
:100C900080E395E7A0E0B0E080938801909389011C
:100CA000A0938A01B0938B01209A219A229A8EE117
:100CB00090E002D683E0E7DF86E090E0FDD583E0B8
:100CC000E2DF82E090E0F8D583E0DDDF82E090E0D3
:100CD000F3D582E0D8DF82E090E0EED588E2CDDF88
:100CE00088E0CBDF81E0C9DF86E0C7DF8CE0C5CFDD
:100CF00080918C01882321F481E080938C01C6CF00
:100D0000089581E0BADF8091840190918501009778
:100D100011F1A0E0B0E208C0E0918401F0918501FA
:100D2000E20FF31FB083AF5F2A2F30E08091000104
:100D300090E001976091010170E0869FA001879F7C
:100D4000500D969F500D1124241735072CF3109247
:100D50008701109286010895D4CF0895A5E0B0E0F0
:100D6000E3EBF6E0CEC6182F80E8898380EC8A8317
:100D700084E98B8384ED8C83FE01E60FF11D818174
:100D8000810F6D837ADF109387016D8160938601F7
:100D90002596E3E0D2C6E2CF0895A0E0B0E0E2ED10
:100DA000F6E0AAC6D82E8091840190918501009723
:100DB00009F4F2C02D2D2A3009F442C02830C9F4BC
:100DC000809187018150809387018F3F51F48091FA
:100DD000860181508093860180910101815080932A
:100DE0008701809186018F3F09F0D1C01092860162
:100DF000CCC08D2D45DF809186018823B9F090E02D
:100E000001974091010150E0849F9001859F300D32
:100E1000949F300D112480918701E0918401F0911D
:100E20008501E20FF31FE80FF11DD0828091870149
:100E30008F5F8093870190910101891709F0ACC001
:100E400040918601242F30E08091000190E00197CD
:100E50002817390709F096C0C0E0D0E03FC080E015
:100E60006C2F7CDFCC248E010F5F1F4F32C0EC2C27
:100E7000FF2430E0C29FC001C39F900DD29F900D10
:100E80001124E0918401F0918501EE0DFF1DE80F22
:100E9000F91F8081F5DE8091840190918501209178
:100EA000010130E0C29FF001C39FF00DD29FF00D11
:100EB00011248E0D9F1DE80FF91F029FD001039F83
:100EC000B00D129FB00D1124A80FB91F8C91808313
:100ED000C39420910101C21650F2E8016091000113
:100EE000862F90E00297C817D9070CF4B8CF62306C
:100EF000D0F1625080E032DF00E010E230C0C02F5D
:100F0000D0E08091000190E0029750E0849F900132
:100F1000859F300D949F300D1124E0918401F09154
:100F20008501EC0FFD1FE20FF31F8081A9DE809188
:100F3000000190E002974091010150E0849F9001F0
:100F4000859F300D949F300D1124E0918401F09124
:100F50008501EC0FFD1FE20FF31F10830F5F40911F
:100F60000101041760F260910001615080E0F6DE3B
:100F700010E003C080E284DE1F5F8091010118173A
:100F8000C8F303C04F5F40938601109287018091A0
:100F9000870160918601E2DE2D2D332727FD3095F4
:100FA000C901CDB7DEB7E8E0C3C580918401909157
:100FB0008501009709F0C0D62091000130E0215052
:100FC00030408091010190E0AC01249FC001259F39
:100FD000900D349F900D112417D690938501809326
:100FE0008401009719F1A0E0B0E208C0E09184010B
:100FF000F0918501E20FF31FB083AF5F2A2F30E03D
:101000008091000190E001976091010170E0869F5E
:10101000A001879F500D969F500D1124241735076E
:101020002CF38DEC96E06FEA75E03AC70895BDCFDA
:101030000895282F30E0F901EE0FFF1F43E0220F43
:10104000331F4A95E1F7E20FF31FEE5FFE4F8281F7
:101050000895282F30E0F901EE0FFF1FB3E0220FB3
:10106000331FBA95E1F7E20FF31FEE5FFE4F4085A5
:1010700051854115510509F452C0282F30E0F9017E
:10108000EE0FFF1F73E0220F331F7A95E1F7E20F97
:10109000F31FEE5FFE4F7281282F30E0F901EE0F53
:1010A000FF1FB3E0220F331FBA95E1F7E20FF31FE2
:1010B000EE5FFE4F9481791790F5282F30E0F9010B
:1010C000EE0FFF1F73E0220F331F7A95E1F7E20F57
:1010D000F31FEE5FFE4F9281490F511DFA016083AD
:1010E000282F30E0F901EE0FFF1F53E0220F331FCE
:1010F0005A95E1F7E20FF31FEE5FFE4F92819F5F7B
:10110000282F30E0F901EE0FFF1FB3E0220F331F4D
:10111000BA95E1F7E20FF31FEE5FFE4F9283282F9F
:1011200030E0F901EE0FFF1F73E0220F331F7A95B5
:10113000E1F7E20FF31FEE5FFE4F4281282F30E010
:10114000F901EE0FFF1F53E0220F331F5A95E1F70D
:10115000E20FF31FEE5FFE4F9481491701F5282F30
:1011600030E0F901EE0FFF1F93E0220F331F9A9535
:10117000E1F7E20FF31FEE5FFE4F9581992379F0BF
:10118000282F30E0F901EE0FFF1FB3E0220F331FCD
:10119000BA95E1F7E20FF31FEE5FFE4F128208955A
:1011A0000F931F93182F823009F474C0882319F409
:1011B000E1ECF0E002C0E9ECF0E080818F77808321
:1011C000812F90E0FC01EE0FFF1F03E0880F991FB5
:1011D0000A95E1F7E80FF91FEE5FFE4F80859185D4
:1011E0000097A1F1212F30E0F901EE0FFF1FA3E0DE
:1011F000220F331FAA95E1F7E20FF31FEE5FFE4FB8
:101200009281212F30E0F901EE0FFF1F63E0220FE2
:10121000331F6A95E1F7E20FF31FEE5FFE4F848103
:101220009817A0F4112319F4E0ECF0E002C0E8EC08
:10123000F0E0808187FF0AC0112319F4E6ECF0E0AA
:1012400002C0EEECF0E06081812F03DF212F30E05F
:10125000F901EE0FFF1F43E0220F331F4A95E1F71C
:10126000E20FF31FEE5FFE4F8081882309F057C025
:10127000112319F4E1ECF0E002C0E9ECF0E0808128
:10128000806880834CC080911B01882319F01092E4
:10129000180145C080911E0190911F01009709F42B
:1012A0003EC09091180180911A019817C0F5809165
:1012B0008D01882399F405D380938D0110E00AC035
:1012C000FDD2E02FF0E03197E11BF109E257FE4F2C
:1012D00080831F5F00918D01101790F3A0918D0105
:1012E000AA23E9F080911801E0911E01F0911F01FD
:1012F000E80FF11DA150A0938D01B0E0A257BE4FA1
:101300008C918083809118018F5F80931801909158
:10131000180180911A01981709F0BCCFB4CF1F9122
:101320000F910895823051F0882319F4E1ECF0E038
:1013300002C0E9ECF0E090819F779083A82FB0E0A5
:10134000FD01EE0FFF1F53E0AA0FBB1F5A95E1F7F7
:10135000EA0FFB1FEE5FFE4F71876087682F70E01A
:10136000FB01EE0FFF1F93E0660F771F9A95E1F7E1
:10137000E60FF71FEE5FFE4F1282682F70E0FB0151
:10138000EE0FFF1FA3E0660F771FAA95E1F7E60FA8
:10139000F71FEE5FFE4F4483482F50E0FA01EE0F37
:1013A000FF1F63E0440F551F6A95E1F7E40FF51F37
:1013B000EE5FFE4F25838230D9F0282F30E0F9010F
:1013C000EE0FFF1F43E0220F331F4A95E1F7E20FB4
:1013D000F31FEE5FFE4F9081992351F4882319F497
:1013E000E1ECF0E002C0E9ECF0E08081806880830D
:1013F000089521E097CFFDCF08951F920F920FB669
:101400000F920BB60F9211242F933F934F935F933C
:101410006F937F938F939F93AF93BF93EF93FF93BC
:101420006091C60080E015DEFF91EF91BF91AF9112
:101430009F918F917F916F915F914F913F912F91EC
:101440000F900BBE0F900FBE0F901F9018951F921C
:101450000F920FB60F920BB60F9211242F933F935A
:101460004F935F936F937F938F939F93AF93BF93AC
:10147000EF93FF936091CE0081E0EBDDFF91EF9160
:10148000BF91AF919F918F917F916F915F914F919C
:101490003F912F910F900BBE0F900FBE0F901F909A
:1014A0001895882319F4E1ECF0E002C0E9ECF0E0D3
:1014B0008081806280830895882319F4E1ECF0E054
:1014C00002C0E9ECF0E080818F7D80830895282FB1
:1014D00030E0F901EE0FFF1F93E0220F331F9A95C2
:1014E000E1F7E20FF31FEE5FFE4F268137812115F2
:1014F000310591F1282F30E0F901EE0FFF1FA3E035
:10150000220F331FAA95E1F7E20FF31FEE5FFE4FA4
:101510004181282F30E0F901EE0FFF1F63E0220F19
:10152000331F6A95E1F7E20FF31FEE5FFE4F9381E1
:10153000491790F4282F30E0F901EE0FFF1F43E028
:10154000220F331F4A95E1F7E20FF31FEE5FFE4FC4
:101550009081992309F4A5CFAFCF823029F1282FAC
:1015600030E0F901EE0FFF1F53E0220F331F5A95B1
:10157000E1F7E20FF31FEE5FFE4F9081992349F4EC
:10158000882319F4E1ECF0E002C0E9ECF0E098E91E
:1015900008C0882319F4E1ECF0E002C0E9ECF0E0C7
:1015A00098E1908394DF78940895882319F081302E
:1015B00029F402C080E0D1CF81E0CFCF0895A0E030
:1015C000B0E0E4EEFAE099C2D82E7A018B01EDDFAB
:1015D0008D2D8230F1F0DD2019F4C4ECD0E002C092
:1015E000CCECD0E0C801B70128EF3FEF4FEF5FEF41
:1015F000CCD16050734D8E4C9E4FA8019701E4E012
:10160000220F331F441F551FEA95D1F7E1D13983CB
:101610002883CDB7DEB7E7E08CC2D1CF0895282F5D
:1016200030E0F901EE0FFF1F73E0220F331F7A95B0
:10163000E1F7E20FF31FEE5FFE4F46815781411540
:10164000510509F465C0282F30E0F901EE0FFF1FA6
:1016500093E0220F331F9A95E1F7E20FF31FEE5F3D
:10166000FE4F6181282F30E0F901EE0FFF1FA3E04C
:10167000220F331FAA95E1F7E20FF31FEE5FFE4F33
:101680009381691708F044C0882319F4E0ECF0E076
:1016900002C0E8ECF0E0908195FF3AC0882319F48D
:1016A000A6ECB0E002C0AEECB0E0282F30E0F901CB
:1016B000EE0FFF1F63E0220F331F6A95E1F7E20F81
:1016C000F31FEE5FFE4F9181490F511DFA0190818A
:1016D0009C93282F30E0F901EE0FFF1F93E0220FBB
:1016E000331F9A95E1F7E20FF31FEE5FFE4F9181F2
:1016F0009F5F282F30E0F901EE0FFF1FA3E0220FBC
:10170000331FAA95E1F7E20FF31FEE5FFE4F9183BF
:10171000DECE1F93182F823021F0CEDE812F7FDFA7
:101720001CC080911C0190911D010097B1F0309177
:10173000170120911901321780F406C0809117011A
:101740008F5F80931701EDCF20911701820F911DBC
:10175000FC018081BAD0882389F71F91089580E029
:10176000D8DF81E0D6DF82E0D4DF80E019DD81E0E0
:1017700017DD82E015CDF3CF08951F920F920FB6BB
:101780000F920BB60F9211242F933F934F935F93B9
:101790006F937F938F939F93AF93BF93EF93FF9339
:1017A00080E03DDFFF91EF91BF91AF919F918F91CD
:1017B0007F916F915F914F913F912F910F900BBE51
:1017C0000F900FBE0F901F9018951F920F920FB69B
:1017D0000F920BB60F9211242F933F934F935F9369
:1017E0006F937F938F939F93AF93BF93EF93FF93E9
:1017F00081E015DFFF91EF91BF91AF919F918F91A4
:101800007F916F915F914F913F912F910F900BBE00
:101810000F900FBE0F901F9018956F9364E06A951C
:10182000F1F76F910197C9F708952F928F939F93C6
:101830002FB680919701909198010196809397011E
:101840009093980190E080919901891F809399016C
:1018500090919F019C5F90939F0180919E01805188
:101860009742C0F090939F0180939E0180919A01CE
:1018700090919B01019680939A0190939B0190E037
:1018800080919C01891F80939C0180919D01891FFB
:1018900080939D012FBE9F918F912F901895CF938C
:1018A000DF93EC0104C088EE93E0B7DF2197209727
:1018B000D1F7DF91CF910895F2CF08958FEF64E0D3
:1018C00041C083E867E03ED0F9CF1F93182F982FCF
:1018D0009095991F9927991F85E8891B65E032D05B
:1018E000812F8F7765E02ED01F9108956F9364E06C
:1018F0006A95F1F76F910197C9F70895A1E0B0E0FB
:10190000E3E8FCE0FEC0182F249908C02C9906C01B
:101910002C9A8EE190E06983E9DF698184B1806A65
:1019200084B92698812F837080656C7A862B8CBD54
:1019300081E012FF80E08DBD81E090E0B0DF219674
:10194000E3E0FBC00F931F93082F162F0CB406FC87
:1019500003C080E064E0D2DF0CB404FC03C08CB5AB
:1019600080618CBD0EBD03C00CB404FE0AC00DB472
:1019700007FEFACF112319F0812F90E0B7DF8EB563
:1019800001C080E01F910F910895DB018F939F9319
:1019900041D0BF91AF91A29F800D911DA39F900D4B
:1019A000B29F900D11240895AA1BBB1B51E107C0E3
:1019B000AA1FBB1FA617B70710F0A61BB70B881FDF
:1019C000991F5A95A9F780959095BC01CD0108956E
:1019D000A1E21A2EAA1BBB1BFD010DC0AA1FBB1F33
:1019E000EE1FFF1FA217B307E407F50720F0A21BA5
:1019F000B30BE40BF50B661F771F881F991F1A9412
:101A000069F760957095809590959B01AC01BD013B
:101A1000CF010895EAD0A59F900DB49F900DA49F8B
:101A2000800D911D11240895689401C0E8948F924F
:101A30009F92CF93DF9305D0DF91CF919F908F90AE
:101A4000089588249924F401E401B0E49F93AA271F
:101A50009A158B049C04ED05FE05CF05D007A10760
:101A600098F4AD2FDC2FCF2FFE2FE92D982C892E47
:101A7000982F872F762F652F542F432F322F222711
:101A8000B85031F7BF9127C01B2EBF91BB27220F43
:101A9000331F441F551F661F771F881F991F881CFF
:101AA000991CEE1FFF1FCC1FDD1FAA1FBB1F8A142E
:101AB0009B04EC05FD05CE05DF05A007B10748F046
:101AC0008A189B08EC09FD09CE09DF09A00BB10BB0
:101AD00021601A94E1F62EF49401AF01BE01CD010C
:101AE000000C08952F923F924F925F926F927F92D7
:101AF0008F929F92AF92BF92CF92DF92EF92FF921E
:101B00000F931F93CF93DF93CDB7DEB7CA1BDB0BC9
:101B10000FB6F894DEBF0FBECDBF09942A8839886E
:101B200048885F846E847D848C849B84AA84B98475
:101B3000C884DF80EE80FD800C811B81AA81B98181
:101B4000CE0FD11D0FB6F894DEBF0FBECDBFED0195
:101B500008950F93083090F0982F872F762F652FD8
:101B6000542F432F322F22270850F4CF220F331F38
:101B7000441F551F661F771F881F991F0A95B2F7CC
:101B80000F9108952A0D3B1D4C1D5D1D6E1D7F1D7F
:101B9000801F911F08950024A7FD00942A0F301D77
:101BA000401D501D601D701D801D901D08952A1937
:101BB0003B094C095D096E097F09800B910B089563
:101BC0002A153B054C055D056E057F0580079107CD
:101BD00008950024A7FD00942A17300540055005FC
:101BE00060057005800590050895A29FB001B39F20
:101BF000C001A39F700D811D1124911DB29F700D16
:101C0000811D1124911D0895CF93DF93823091059A
:101C100010F482E090E0E0911E02F0911F0220E0BB
:101C200030E0A0E0B0E0309739F1408151814817B1
:101C30005907B8F04817590771F4828193811097BA
:101C400029F013969C938E9312972CC090931F02A9
:101C500080931E0227C02115310531F0421753072A
:101C600018F0A901DB0101C0EF019A01BD01DF01FC
:101C70000280F381E02DD7CF21153105F9F0281B23
:101C8000390B2430310580F48A819B8161157105FF
:101C900021F0FB019383828304C090931F02809301
:101CA0001E02FE01329644C0FE01E20FF31F819333
:101CB000919322503109398328833AC020911C0224
:101CC00030911D02232B41F42091220130912301F8
:101CD00030931D0220931C0220912001309121019C
:101CE0002115310541F42DB73EB7409124015091A3
:101CF0002501241B350BE0911C02F0911D02E21717
:101D0000F307A0F42E1B3F0B2817390778F0AC011E
:101D10004E5F5F4F2417350748F04E0F5F1F5093FB
:101D20001D0240931C028193919302C0E0E0F0E019
:101D3000CF01DF91CF910895CF93DF93009709F4FE
:101D400087C0FC01329713821282C0911E02D0918B
:101D50001F02209781F420813181280F391F809143
:101D60001C0290911D028217930779F5F0931D02D2
:101D7000E0931C026DC0DE0120E030E0AE17BF072B
:101D800050F412964D915C9113979D0141155105A8
:101D900009F1DA01F3CFB383A28340815181840F2B
:101DA000951F8A179B0771F48D919C911197840F51
:101DB000951F02969183808312968D919C91139723
:101DC000938382832115310529F4F0931F02E09358
:101DD0001E023EC0D9011396FC93EE9312974D91CB
:101DE0005D91A40FB51FEA17FB0779F480819181FB
:101DF000840F951F0296D90111969C938E93828130
:101E0000938113969C938E931297E0E0F0E08A8181
:101E10009B81009719F0FE01EC01F9CFCE010296EB
:101E200028813981820F931F20911C0230911D025D
:101E30002817390769F4309729F410921F0210927D
:101E40001E0202C013821282D0931D02C0931C0294
:101E5000DF91CF910895FC0188279927E89421917B
:101E60002032E9F3293010F02E30C8F32B3239F04C
:101E70002D3231F4689403C00BD0820F911D219153
:101E800020532A30C8F31EF4909581959F4F0895F2
:101E90007AE0979F902D879F802D910D11240895B2
:101EA0000F931F93CF93DF93EC018B01009731F4D5
:101EB0006115710519F480E090E037C06EE070E0C4
:101EC00081E090E036D2FC010097A9F380E883839B
:101ED0000115110571F01387028781E883838091D2
:101EE000200290912102892B21F4F0932102E093AA
:101EF00020022097C9F0D187C087838182608383C5
:101F00008091220290912302892B71F4F093230295
:101F1000E09322028091240290912502892B21F4E2
:101F2000F0932502E0932402CF01DF91CF911F911E
:101F30000F910895CF93DF93CDB7DEB7FE013596AD
:101F400061917191AF01809122029091230203D09F
:101F5000DF91CF9108952F923F924F925F926F92AF
:101F60007F928F929F92AF92BF92CF92DF92EF9229
:101F7000FF920F931F93CF93DF93CDB7DEB72C97CC
:101F80000FB6F894DEBF0FBECDBF7C016B018A0196
:101F9000FC0117821682838181FFB0C1CE010196B8
:101FA0004C01F7019381F60193FD859193FF819197
:101FB0006F01882309F49EC1853239F493FD859120
:101FC00093FF81916F01853221F4B70190E0E8D150
:101FD000E8CF512C312C20E02032A0F48B3269F074
:101FE00030F4803259F0833269F420612CC08D3294
:101FF00039F0803339F4216026C02260246023C088
:10200000286021C027FD27C030ED380F3A3078F422
:1020100026FF06C0FAE05F9E300D1124532E13C038
:102020008AE0389E300D1124332E20620CC08E328F
:1020300021F426FD5FC1206406C08C3611F42068AF
:1020400002C0883641F4F60193FD859193FF81919A
:102050006F018111C1CF982F9F7D9554933028F443
:102060000C5F1F4FFFE3F9830DC0833631F08337D8
:1020700071F0833509F057C021C0F8018081898350
:102080000E5F1F4F44244394512C540114C0380157
:10209000F2E06F0E711CF801A080B18026FF03C032
:1020A000652D70E002C06FEF7FEFC5012C876DD109
:1020B0002C0183012C852F77222E16C03801F2E0E7
:1020C0006F0E711CF801A080B18026FF03C0652D42
:1020D00070E002C06FEF7FEFC5012C8744D12C0167
:1020E0002C852068222E830123FC19C0832D90E0CB
:1020F00048165906A0F4B70180E290E051D13A9415
:10210000F5CFF50127FC859127FE81915F01B7018D
:1021100090E046D131103A94F1E04F1A5108411441
:10212000510479F7DEC0843611F0893631F5F801B3
:1021300027FF07C060817181828193810C5F1F4FEF
:1021400008C060817181882777FD8095982F0E5F88
:102150001F4F2F76B22E97FF09C0909580957095EE
:1021600061957F4F8F4F9F4F2068B22E2AE030E05D
:10217000A40148D1A82EA81843C0853729F42F7E82
:10218000B22E2AE030E025C0F22FF97FBF2E8F3625
:10219000C1F018F4883579F0ADC0803719F0883770
:1021A00021F0A8C02F2F2061B22EB4FE0DC08B2DC0
:1021B0008460B82E09C024FF0AC09F2F9660B92EF4
:1021C00006C028E030E005C020E130E002C020E198
:1021D00032E0F801B7FE07C060817181828193818E
:1021E0000C5F1F4F06C06081718180E090E00E5F40
:1021F0001F4FA40107D1A82EA818FB2DFF77BF2ED3
:10220000B6FE0BC02B2D2E7FA51450F4B4FE0AC0D1
:10221000B2FC08C02B2D2E7E05C07A2C2B2D03C0BE
:102220007A2C01C0752C24FF0DC0FE01EA0DF11DB2
:102230008081803311F4297E09C022FF06C0739487
:10224000739404C0822F867809F0739423FD12C022
:1022500020FF06C05A2C731418F4530C5718732C13
:10226000731460F4B70180E290E02C8799D07394E6
:102270002C85F6CF731410F4371801C0312C24FFCD
:1022800011C0B70180E390E02C878AD02C8522FF13
:1022900016C021FF03C088E590E002C088E790E007
:1022A000B7010CC0822F867851F021FD02C080E278
:1022B00001C08BE227FD8DE2B70190E071D0A5143B
:1022C00030F4B70180E390E06BD05A94F8CFAA9431
:1022D000F401EA0DF11D8081B70190E061D0A110F9
:1022E000F6CF332009F45DCEB70180E290E058D0FC
:1022F0003A94F7CFF7018681978102C08FEF9FEF65
:102300002C960FB6F894DEBF0FBECDBFDF91CF91F4
:102310001F910F91FF90EF90DF90CF90BF90AF9003
:102320009F908F907F906F905F904F903F902F90F5
:1023300008950F931F93CF93DF93869F8001879F0C
:10234000100D969F100D1124C8015EDCEC01009762
:1023500021F0A80160E070E011D0CE01DF91CF91B3
:102360001F910F910895FC0105906150704001107C
:10237000D8F7809590958E0F9F1F0895DC0101C0BE
:102380006D9341505040E0F70895FC01615070405A
:1023900001900110D8F7809590958E0F9F1F08959A
:1023A0000F931F93CF93DF93182F092FEB018B818E
:1023B00081FD03C08FEF9FEF20C082FF10C04E81D0
:1023C0005F812C813D81421753077CF4E881F981BC
:1023D0009F012F5F3F4F39832883108306C0E88514
:1023E000F985812F0995892B29F72E813F812F5F50
:1023F0003F4F3F832E83812F902FDF91CF911F91ED
:102400000F910895FA01AA27283051F1203181F166
:10241000E8946F936E7F6E5F7F4F8F4F9F4FAF4FEC
:10242000B1E03ED0B4E03CD0670F781F891F9A1FFF
:10243000A11D680F791F8A1F911DA11D6A0F711DB3
:10244000811D911DA11D20D009F468943F912AE0BF
:10245000269F11243019305D3193DEF6CF010895A7
:10246000462F4770405D4193B3E00FD0C9F7F6CFD8
:10247000462F4F70405D4A3318F0495D31FD4052A0
:10248000419302D0A9F7EACFB4E0A6959795879536
:1024900077956795BA95C9F7009761057105089515
:1024A0009B01AC010A2E06945795479537952795C1
:1024B000BA95C9F7620F731F841F951FA01D089559
:0424C000F894FFCFBE
:1024C40002100000000000000000000000000000F6
:1024D40000000000000001000000000000000000F7
:1024E4000000260220000A00000000000000640032
:1024F400000000000000E803000000000000546930
:102504006D655F4D733A2025640048454C4C4F3F40
:102514003A2020256400523A2575593A2575005908
:102524003A256920473A256C7500523A256C7500A6
:10253400593A256C7500496E697469616C697A69E8
:042544006E670000BE
:00000001FF
