:1000000045C0000061C000005FC000005DC000008E
:100010005BC0000059C0000057C0000055C0000080
:1000200053C0000051C000004FC000000C94AC0C45
:100030004BC0000039C1000047C0000074C100007F
:100040004DC0000041C000003FC000003DC00000A6
:100050000C94600A0C94540C37C0000035C00000AA
:1000600033C0000031C000002FC000002DC00000D0
:100070000C948A0A0C947C0C27C0000025C0000058
:100080004AC0000021C000001FC0000011241FBE94
:10009000CFEFD0E4DEBFCDBF11E0A0E0B1E0E6E5F8
:1000A000F7E200E00BBF02C007900D92AA37B1073C
:1000B000D9F722E0AAE7B1E001C01D92A631B2074C
:1000C000E1F749D40C94A9139BCF82E00E946A08FF
:1000D000811103C00E941E0CF8CF08951F920F9249
:1000E0000FB60F9211248F9381E0809399011092A3
:1000F0009A0110929B0110929C0110929D01109206
:100100009E0110929F011092A0018F910F900FBE3F
:100110000F901F9018951F920F920FB60F921124F7
:100120000BB60F928F929F92AF92BF92CF92DF92B7
:10013000EF92FF920F931F932F933F934F935F93F1
:100140006F937F938F939F93AF93BF93CF93DF93DF
:10015000EF93FF932091A1013091A2014091A3015F
:100160005091A4016091A5017091A6018091A70111
:100170009091A801A1E00E941D0F2093A10130934E
:10018000A2014093A3015093A4016093A501709331
:10019000A6018093A7019093A8018090A10190905F
:1001A000A201D091A301C091A401B091A501A09199
:1001B000A601F091A701E091A801209126013091BC
:1001C0002701409128015091290160912A017091E5
:1001D0002B0180912C0190912D0101E00E94010FD3
:1001E00059016A017B018C0194014D2F5C2F6B2F0B
:1001F0007A2F8F2F9E2F0E94290FB8F12091B901DD
:100200003091BA014091BB015091BC016091BD0198
:100210007091BE018091BF019091C001A1E00E9448
:100220001D0F2093B9013093BA014093BB01509345
:10023000BC016093BD017093BE018093BF01909398
:10024000C0011092A1011092A2011092A30110927C
:10025000A4011092A5011092A6011092A70110927C
:10026000A80182B191E0892782B9FF91EF91DF91D6
:10027000CF91BF91AF919F918F917F916F915F913E
:100280004F913F912F911F910F91FF90EF90DF9031
:10029000CF90BF90AF909F908F900F900BBE0F901C
:1002A0000FBE0F901F9018951F920F920FB60F92CE
:1002B00011242F933F934F935F936F937F938F936B
:1002C0009F93AF932091B1013091B2014091B3015E
:1002D0005091B4016091B5017091B6018091B70160
:1002E0009091B801A1E00E941D0F2093B1013093BD
:1002F000B2014093B3015093B4016093B501709380
:10030000B6018093B7019093B801AF919F918F91FF
:100310007F916F915F914F913F912F910F900FBE01
:100320000F901F9018951F920F920FB60F921124E5
:100330002F933F934F935F936F937F938F939F93ED
:10034000AF932091B1013091B2014091B30150912E
:10035000B4016091B5017091B6018091B70190919F
:10036000B801A1E00E941D0F2093B1013093B201AA
:100370004093B3015093B4016093B5017093B601FB
:100380008093B7019093B801AF919F918F917F9126
:100390006F915F914F913F912F910F900FBE0F90F2
:1003A0001F9018958F929F92AF92BF92CF92DF923B
:1003B000EF92FF920F931F93CF93DF9300D0CDB7AF
:1003C000DEB70091CA011091CB01C80102960E94CC
:1003D0008E10FC01D8018C91843509F450C18A3506
:1003E00009F4ECC0803509F011C211968C91873464
:1003F00009F4BCC008F077C0813409F007C2ECD41E
:1004000060E080E008D5E091B901F091BA01A091D7
:10041000BB01B091BC01F090BD01E090BE01109114
:10042000BF010091C0018091C1019091C201209152
:10043000C3013091C4014091C5015091C601609142
:10044000C7017091C8010F931F93EF92FF92BF9362
:10045000AF93FF93EF937F936F935F934F933F938C
:100460002F939F938F938AE491E09F938F930E94A1
:10047000041161E080E0CFD4E091B101F091B201CC
:10048000A091B301B091B401F090B501E090B60134
:100490001091B7010091B8018091B9019091BA0112
:1004A0002091BB013091BC014091BD015091BE0132
:1004B0006091BF017091C0010F931F93EF92FF9263
:1004C000BF93AF93FF93EF937F936F935F934F939C
:1004D0003F932F939F938F9383E591E09F938F9307
:1004E0000E94041165C0823511F1893509F08EC171
:1004F00073D460E080E08FD48091B9019091BA010B
:100500002091BB013091BC014091BD015091BE01D1
:100510006091BF017091C0017F936F935F934F9380
:100520003F932F939F938F9384E691E03DC054D4E3
:1005300060E080E070D48091C1019091C20120916F
:10054000C3013091C4014091C5015091C601609131
:10055000C7017091C8017F936F935F934F933F934F
:100560002F939F938F938EE591E01EC035D460E06A
:1005700080E051D48091B1019091B2012091B301FA
:100580003091B4014091B5015091B6016091B7012D
:100590007091B8017F936F935F934F933F932F9325
:1005A0009F938F9388E591E09F938F930E9404110E
:1005B0000FB6F894DEBF0FBECDBF28C1D80111968B
:1005C0008C91873409F44BC020F5813409F057C071
:1005D0001092C1011092C2011092C3011092C40185
:1005E0001092C5011092C6011092C7011092C80165
:1005F0001092B9011092BA011092BB011092BC0185
:100600001092BD011092BE011092BF011092C00164
:1006100026C0823599F0893591F51092B901109272
:10062000BA011092BB011092BC011092BD01109250
:10063000BE011092BF011092C00121C01092C101F1
:100640001092C2011092C3011092C4011092C50110
:100650001092C6011092C7011092C80110C01092EA
:10066000B1011092B2011092B3011092B401109234
:10067000B5011092B6011092B7011092B801D801DD
:1006800011968C91873409F48BC008F05BC08134DB
:1006900009F0BCC08F01E09336011093370110922E
:1006A00038011092390110923A0110923B011092D8
:1006B0003C0110923D01CF0164E670E00E94880E7B
:1006C0008B0160932601109327011092280110924C
:1006D000290110922A0110922B0110922C011092E4
:1006E0002D01CF0168EE73E00E94880E4B016093EC
:1006F0002E0190922F011092300110923101109230
:10070000320110923301109234011092350180E0D1
:1007100090E00E94880D20E036E948E956E40E9406
:10072000EE0D0E945C0D70938700609386008091AF
:100730008600909187009695879590938900809385
:10074000880064C08235D1F0893509F05FC0CF01DF
:1007500064E670E00E94880E8B016093260110937E
:100760002701109228011092290110922A0110925B
:100770002B0110922C0110922D0148C08F01E093A3
:1007800036011093370110923801109239011092FE
:100790003A0110923B0110923C0110923D0136C08B
:1007A000CF0168EE73E00E94880E80E090E00E9426
:1007B000880D20E036E948E956E40E94EE0D8C01F0
:1007C0001F938F937F936F932AE631E03F932F938C
:1007D00069837A830E94041169817A81802F912F25
:1007E0000E945C0D70938700609386008091860064
:1007F00090918700969587959093890080938800C3
:100800000F900F900F900F900F900F90E091CA01F2
:10081000F091CB0188E0DF011D928A95E9F70F90F6
:100820000F90DF91CF911F910F91FF90EF90DF908C
:10083000CF90BF90AF909F908F900895CF93C82F87
:10084000893509F454C030F5813409F45DC0B8F439
:100850008D3009F45FC008F45EC080ED8C0F8A30E3
:1008600008F059C0E091CA01F091CB018781DF0106
:10087000A80FB11D1296CC938F5F87834CC0803533
:1008800019F118F48734D1F146C0823551F184351D
:1008900011F141C08037C1F038F48136A9F18736B3
:1008A00069F18A35C1F50AC08437A9F018F4823796
:1008B000C1F031C08937D9F08A3769F5E091CA01B2
:1008C000F091CB018AE505C0E091CA01F091CB011E
:1008D00080E5808320C0E091CA01F091CB0184E5DE
:1008E000F8CFE091CA01F091CB0182E505C0E0911B
:1008F000CA01F091CB0189E581830DC0E091CA0165
:10090000F091CB0187E4F8CFE091CA01F091CB01DF
:1009100081E4F2CF47DDD9DBC093EC0141E06CEE1E
:1009200071E082E0CF91BEC782E0C4D3E091C901FB
:100930008E1781F0F0E0E453FE4F80817FDF8091DD
:10094000C9018F3119F41092C901EECF8F5F8093E6
:10095000C901EACF089581B1856081B9559AA8D3BC
:100960008DE691E09F938F930E9404118BB190E2EA
:1009700089278BB982B194E0892782B982B191E04D
:10098000892782B90F900F9080E590E0109298012E
:1009900010929701209197013091980126393842A1
:1009A00058F420919701309198012F5F3F4F309379
:1009B000980120939701EECF0197009739F78BB1FB
:1009C00090E289278BB982B194E0892782B982B1FC
:1009D00091E0892782B900D284B5826084BD85B553
:1009E000846085BD8EE487BD22E020936E00109266
:1009F0009000809191008B608093910082E19AE752
:100A000090939900809398002093710080918000CA
:100A1000826880938000809181008D618093810045
:100A20008BE49CE4909387008093860080918600FD
:100A30009091870096958795909389008093880080
:100A400083E080936F00789440E855E260E070E0C6
:100A500082E046D640E26CEC71E082E02FD568E09F
:100A600070E081E090E00E944D0F9093CB01809365
:100A7000CA01C4E02091990130919A0140919B01F3
:100A800050919C0160919D0170919E0180919F0108
:100A90009091A001A0E00E94320F09F49BC0209128
:100AA000A9013091AA014091AB015091AC01609134
:100AB000AD017091AE018091AF019091B001A1E0C4
:100AC0000E941D0F2093A9013093AA014093AB010E
:100AD0005093AC016093AD017093AE018093AF0170
:100AE0009093B0017090A9018090AA019090AB0101
:100AF000D091AC01B091AD01A091AE01F091AF01E8
:100B0000E091B001209136013091370140913801D8
:100B10005091390160913A0170913B0180913C0103
:100B200090913D0101E00E94010F59016A017B0192
:100B30008C01272D382D492D5D2F6B2F7A2F8F2F6C
:100B40009E2F0E94290FB0F182B18C2782B920918B
:100B5000C1013091C2014091C3015091C401609123
:100B6000C5017091C6018091C7019091C801A1E0B3
:100B70000E941D0F2093C1013093C2014093C30115
:100B80005093C4016093C5017093C6018093C7015F
:100B90009093C8011092A9011092AA011092AB0182
:100BA0001092AC011092AD011092AE011092AF0103
:100BB0001092B0011092990110929A0110929B012B
:100BC00010929C0110929D0110929E0110929F0123
:100BD0001092A00133D6A8DE4DCF80E090E00895BA
:100BE00081E090E06F9364E06A95F1F76F9101976F
:100BF000C9F708950F931F93CF93DF9317B13D98D3
:100C00002898299AC0E0D0E0EBDF2A9AE9DF06B104
:100C10002A98E6DF2A9AE4DF2A98249605FF10C076
:100C20009E0140E050E080917E0190917F01A09173
:100C30008001B0918101281739074A075B0720F32B
:100C40009E0140E050E080917E0190917F01A09153
:100C50008001B0918101281739074A075B0728F006
:100C600082E390E0A0E0B0E004C080E395E7A0E07C
:100C7000B0E080937E0190937F01A0938001B093B8
:100C8000810117B9DF91CF911F910F91089528B17C
:100C900090E08F709070880F991F880F991F237CA8
:100CA000282B28B92A9A9CDF2A989ACFA2E0B0E094
:100CB000ECE5F6E00C94D50E182F4A83698358D0E2
:100CC00099DFF7B008B1299869814A81662311F04C
:100CD000289A01C0289887B18C6387B9413021F0E8
:100CE000812F82958F70D3DF812F8F70D0DFF7B87F
:100CF00008B92296E5E00C94F10E60E042E0D6CF10
:100D000061E042E0D3CF60E041E0D0CF3D98459A2A
:100D100080E395E7A0E0B0E080937E0190937F01AF
:100D2000A0938001B0938101209A219A229A8EE1AA
:100D300090E059D683E0E7DF86E090E054D683E088
:100D4000E2DF82E090E04FD683E0DDDF82E090E0FA
:100D50004AD682E0D8DF82E090E045D688E2CDDF57
:100D600088E0CBDF81E0C9DF86E0C7DF8CE0C5CF5C
:100D700080918201882321F481E080938201C6CF93
:100D8000089581E0BADF80917A0190917B0100970C
:100D900011F1A0E0B0E208C0E0917A01F0917B018E
:100DA000E20FF31FB083AF5F2A2F30E08091000184
:100DB00090E001976091010170E0869FA001879FFC
:100DC000500D969F500D1124241735072CF31092C7
:100DD0007D0110927C010895D4CF0895A5E0B0E084
:100DE000E3EFF6E0E4C7182F80E8898380EC8A837C
:100DF00084E98B8384ED8C83FE01E60FF11D8181F4
:100E0000810F6D837ADF10937D016D8160937C018A
:100E10002596E3E0E8C7E2CF0895A0E0B0E0E2E184
:100E2000F7E0C0C7D82E80917A0190917B0100979E
:100E300009F4F2C02D2D2A3009F442C02830C9F43B
:100E400080917D01815080937D018F3F51F480918D
:100E50007C01815080937C018091010181508093BD
:100E60007D0180917C018F3F09F0D1C010927C01FF
:100E7000CCC08D2D45DF80917C018823B9F090E0B6
:100E800001974091010150E0849F9001859F300DB2
:100E9000949F300D112480917D01E0917A01F091B1
:100EA0007B01E20FF31FE80FF11DD08280917D01DD
:100EB0008F5F80937D0190910101891709F0ACC08B
:100EC00040917C01242F30E08091000190E0019757
:100ED0002817390709F096C0C0E0D0E03FC080E095
:100EE0006C2F7CDFCC248E010F5F1F4F32C0EC2CA7
:100EF000FF2430E0C29FC001C39F900DD29F900D90
:100F00001124E0917A01F0917B01EE0DFF1DE80FB5
:100F1000F91F8081F5DE80917A0190917B0120910B
:100F2000010130E0C29FF001C39FF00DD29FF00D90
:100F300011248E0D9F1DE80FF91F029FD001039F02
:100F4000B00D129FB00D1124A80FB91F8C91808392
:100F5000C39420910101C21650F2E8016091000192
:100F6000862F90E00297C817D9070CF4B8CF6230EB
:100F7000D0F1625080E032DF00E010E230C0C02FDC
:100F8000D0E08091000190E0029750E0849F9001B2
:100F9000859F300D949F300D1124E0917A01F091DE
:100FA0007B01EC0FFD1FE20FF31F8081A9DE809112
:100FB000000190E002974091010150E0849F900170
:100FC000859F300D949F300D1124E0917A01F091AE
:100FD0007B01EC0FFD1FE20FF31F10830F5F4091A9
:100FE0000101041760F260910001615080E0F6DEBB
:100FF00010E003C080E284DE1F5F809101011817BA
:10100000C8F303C04F5F40937C0110927D01809133
:101010007D0160917C01E2DE2D2D332727FD309587
:10102000C901CDB7DEB7E8E0D9C680917A019091C9
:101030007B01009709F0E3D72091000130E02150B7
:1010400030408091010190E0AC01249FC001259FB8
:10105000900D349F900D11243AD790937B0180938B
:101060007A01009721F1A0E0B0E208C0E0917A0196
:10107000F0917B01E20FF31FB083AF5F2A2F30E0C6
:101080008091000190E001976091010170E0869FDE
:10109000A001879F500D969F500D112424173507EE
:1010A0002CF38DE097E06DEE75E00C94BA10089586
:1010B000BCCF0895282F30E0F901EE0FFF1F43E069
:1010C000220F331F4A95E1F7E20FF31FEE5FFE4F49
:1010D00082810895282F30E0F901EE0FFF1F73E0A1
:1010E000220F331F7A95E1F7E20FF31FEE5FFE4FF9
:1010F0004181282F30E0F901EE0FFF1F53E0220F4E
:10110000331F5A95E1F7E20FF31FEE5FFE4F81E0C8
:101110009381491380E00895282F30E0F901EE0F04
:10112000FF1FB3E0220F331FBA95E1F7E20FF31F61
:10113000EE5FFE4F408551854115510509F452C0BF
:10114000282F30E0F901EE0FFF1F73E0220F331F4D
:101150007A95E1F7E20FF31FEE5FFE4F7281282FC1
:1011600030E0F901EE0FFF1FB3E0220F331FBA95F5
:10117000E1F7E20FF31FEE5FFE4F9481791790F5D0
:10118000282F30E0F901EE0FFF1F73E0220F331F0D
:101190007A95E1F7E20FF31FEE5FFE4F9281490F60
:1011A000511DFA016083282F30E0F901EE0FFF1F77
:1011B00053E0220F331F5A95E1F7E20FF31FEE5F62
:1011C000FE4F92819F5F282F30E0F901EE0FFF1F45
:1011D000B3E0220F331FBA95E1F7E20FF31FEE5F82
:1011E000FE4F9283282F30E0F901EE0FFF1F73E0CE
:1011F000220F331F7A95E1F7E20FF31FEE5FFE4FE8
:101200004281282F30E0F901EE0FFF1F53E0220F3B
:10121000331F5A95E1F7E20FF31FEE5FFE4F948103
:10122000491701F5282F30E0F901EE0FFF1F93E079
:10123000220F331F9A95E1F7E20FF31FEE5FFE4F87
:101240009581992379F0282F30E0F901EE0FFF1FE7
:10125000B3E0220F331FBA95E1F7E20FF31FEE5F01
:10126000FE4F128208950F931F93182F823009F4B6
:1012700074C0882319F4E1ECF0E002C0E9ECF0E07E
:1012800080818F778083812F90E0FC01EE0FFF1F1C
:1012900003E0880F991F0A95E1F7E80FF91FEE5F49
:1012A000FE4F808591850097A1F1212F30E0F90153
:1012B000EE0FFF1FA3E0220F331FAA95E1F7E20F05
:1012C000F31FEE5FFE4F9281212F30E0F901EE0F08
:1012D000FF1F63E0220F331F6A95E1F7E20FF31F50
:1012E000EE5FFE4F84819817A0F4112319F4E0EC0F
:1012F000F0E002C0E8ECF0E0808187FF0AC0112333
:1013000019F4E6ECF0E002C0EEECF0E06081812F31
:1013100003DF212F30E0F901EE0FFF1F43E0220F22
:10132000331F4A95E1F7E20FF31FEE5FFE4F808116
:10133000882309F057C0112319F4E1ECF0E002C052
:10134000E9ECF0E08081806880834CC080911B01D3
:10135000882319F01092180145C080911E019091C8
:101360001F01009709F43EC09091180180911A0165
:101370009817C0F580918301882399F439D380931D
:10138000830110E00AC031D3E02FF0E03197E11B78
:10139000F109EC57FE4F80831F5F00918301101706
:1013A00090F3A0918301AA23E9F080911801E091C4
:1013B0001E01F0911F01E80FF11DA150A0938301C0
:1013C000B0E0AC57BE4F8C918083809118018F5F45
:1013D000809318019091180180911A01981709F0D3
:1013E000BCCFB4CF1F910F910895823051F0882364
:1013F00019F4E1ECF0E002C0E9ECF0E090819F77B5
:101400009083A82FB0E0FD01EE0FFF1F53E0AA0F5D
:10141000BB1F5A95E1F7EA0FFB1FEE5FFE4F718786
:101420006087682F70E0FB01EE0FFF1F93E0660FEF
:10143000771F9A95E1F7E60FF71FEE5FFE4F1282D6
:10144000682F70E0FB01EE0FFF1FA3E0660F771F10
:10145000AA95E1F7E60FF71FEE5FFE4F4483482F92
:1014600050E0FA01EE0FFF1F63E0440F551F6A952D
:10147000E1F7E40FF51FEE5FFE4F25838230D9F0D0
:10148000282F30E0F901EE0FFF1F43E0220F331F3A
:101490004A95E1F7E20FF31FEE5FFE4F908199232B
:1014A00051F4882319F4E1ECF0E002C0E9ECF0E03B
:1014B000808180688083089521E097CFFDCF0895D3
:1014C0001F920F920FB60F920BB60F9211242F930B
:1014D0003F934F935F936F937F938F939F93AF93BC
:1014E000BF93EF93FF936091C60080E015DEFF91FC
:1014F000EF91BF91AF919F918F917F916F915F918C
:101500004F913F912F910F900BBE0F900FBE0F90F8
:101510001F9018951F920F920FB60F920BB60F9255
:1015200011242F933F934F935F936F937F938F93E8
:101530009F93AF93BF93EF93FF936091CE0081E0B1
:10154000EBDDFF91EF91BF91AF919F918F917F91D3
:101550006F915F914F913F912F910F900BBE0F9024
:101560000FBE0F901F901895882319F4E1ECF0E05E
:1015700002C0E9ECF0E080818062808308958823D6
:1015800019F4E1ECF0E002C0E9ECF0E080818F7D3D
:1015900080830895282F30E0F901EE0FFF1F93E0BC
:1015A000220F331F9A95E1F7E20FF31FEE5FFE4F14
:1015B000268137812115310591F1282F30E0F9017D
:1015C000EE0FFF1FA3E0220F331FAA95E1F7E20FF2
:1015D000F31FEE5FFE4F4181282F30E0F901EE0F3F
:1015E000FF1F63E0220F331F6A95E1F7E20FF31F3D
:1015F000EE5FFE4F9381491790F4282F30E0F901F8
:10160000EE0FFF1F43E0220F331F4A95E1F7E20F71
:10161000F31FEE5FFE4F9081992309F4A5CFAFCF62
:10162000823029F1282F30E0F901EE0FFF1F53E03F
:10163000220F331F5A95E1F7E20FF31FEE5FFE4FC3
:101640009081992349F4882319F4E1ECF0E002C079
:10165000E9ECF0E098E908C0882319F4E1ECF0E047
:1016600002C0E9ECF0E098E1908394DF789408956B
:10167000882319F0813029F402C080E0D1CF81E0C5
:10168000CFCF0895A0E0B0E0E7E4FBE08CC3D82E14
:101690007A018B01EDDF8D2D8230F1F0DD2019F420
:1016A000C4ECD0E002C0CCECD0E0C801B70128EF18
:1016B0003FEF4FEF5FEF1DD36050734D8E4C9E4F49
:1016C000A8019701E4E0220F331F441F551FEA953C
:1016D000D1F732D339832883CDB7DEB7E7E07FC3B4
:1016E000D1CF0895282F30E0F901EE0FFF1F73E0EE
:1016F000220F331F7A95E1F7E20FF31FEE5FFE4FE3
:10170000468157814115510509F465C0282F30E005
:10171000F901EE0FFF1F93E0220F331F9A95E1F7B7
:10172000E20FF31FEE5FFE4F6181282F30E0F901D9
:10173000EE0FFF1FA3E0220F331FAA95E1F7E20F80
:10174000F31FEE5FFE4F9381691708F044C08823B2
:1017500019F4E0ECF0E002C0E8ECF0E0908195FFD5
:101760003AC0882319F4A6ECB0E002C0AEECB0E0B9
:10177000282F30E0F901EE0FFF1F63E0220F331F27
:101780006A95E1F7E20FF31FEE5FFE4F9181490F7B
:10179000511DFA0190819C93282F30E0F901EE0F42
:1017A000FF1F93E0220F331F9A95E1F7E20FF31F1B
:1017B000EE5FFE4F91819F5F282F30E0F901EE0F21
:1017C000FF1FA3E0220F331FAA95E1F7E20FF31FDB
:1017D000EE5FFE4F9183DECE1F93182F823021F0F3
:1017E000CEDE812F7FDF1CC080911C0190911D01F6
:1017F0000097B1F03091170120911901321780F450
:1018000006C0809117018F5F80931701EDCF209163
:101810001701820F911DFC018081EED0882389F78A
:101820001F91089580E0D8DF81E0D6DF82E0D4DF29
:1018300080E019DD81E017DD82E015CDF3CF08955A
:10184000282F30E0F901EE0FFF1F93E0220F331F26
:101850009A95E1F7E20FF31FEE5FFE4F7783668301
:10186000282F30E0F901EE0FFF1FA3E0220F331FF6
:10187000AA95E1F7E20FF31FEE5FFE4F1182282FCA
:1018800030E0F901EE0FFF1F63E0220F331F6A956E
:10189000E1F7E20FF31FEE5FFE4F4383823009F062
:1018A00079CE0895CDCF08951F920F920FB60F9263
:1018B0000BB60F9211242F933F934F935F936F9327
:1018C0007F938F939F93AF93BF93EF93FF9380E0AA
:1018D00009DFFF91EF91BF91AF919F918F917F9120
:1018E0006F915F914F913F912F910F900BBE0F9091
:1018F0000FBE0F901F9018951F920F920FB60F9268
:101900000BB60F9211242F933F934F935F936F93D6
:101910007F938F939F93AF93BF93EF93FF9381E058
:10192000E1DEFF91EF91BF91AF919F918F917F91F8
:101930006F915F914F913F912F910F900BBE0F9040
:101940000FBE0F901F9018956F9364E06A95F1F7A2
:101950006F910197C9F708952F928F939F932FB698
:1019600080918D0190918E01019680938D019093CD
:101970008E0190E080918F01891F80938F0190915B
:1019800095019C5F909395018091940180519742BD
:10199000C0F0909395018093940180919001909173
:1019A00091010196809390019093910190E0809134
:1019B0009201891F8093920180919301891F8093E6
:1019C00093012FBE9F918F912F901895CF93DF9306
:1019D000EC0104C088EE93E0B7DF21972097D1F7A0
:1019E000DF91CF910895F2CF08958FEF64E041C069
:1019F00083E867E03ED0F9CF1F93182F982F90957A
:101A0000991F9927991F85E8891B65E032D0812F9E
:101A10008F7765E02ED01F9108956F9364E06A95EB
:101A2000F1F76F910197C9F70895A1E0B0E0EAE1FD
:101A3000FDE0BDC1182F249908C02C9906C02C9A2E
:101A40008EE190E06983E9DF698184B1806A84B9BD
:101A50002698812F837080656C7A862B8CBD81E0FF
:101A600012FF80E08DBD81E090E0B0DF2196E3E0E1
:101A7000BAC10F931F93082F162F0CB406FC03C096
:101A800080E064E0D2DF0CB404FC03C08CB580615C
:101A90008CBD0EBD03C00CB404FE0AC00DB407FE1D
:101AA000FACF112319F0812F90E0B7DF8EB501C076
:101AB00080E01F910F91089570D088F09F5790F0AB
:101AC000B92F9927B751A0F0D1F0660F771F881F63
:101AD000991F1AF0BA95C9F712C0B13081F077D0CA
:101AE000B1E0089574C0672F782F8827B85F39F068
:101AF000B93FCCF3869577956795B395D9F73EF4C2
:101B000090958095709561957F4F8F4F9F4F089569
:101B1000E89409C097FB3EF4909580957095619587
:101B20007F4F8F4F9F4F9923A9F0F92F96E9BB273D
:101B30009395F695879577956795B795F111F8CFB9
:101B4000FAF4BB0F11F460FF1BC06F5F7F4F8F4F24
:101B50009F4F16C0882311F096E911C0772321F01A
:101B60009EE8872F762F05C0662371F096E8862FB2
:101B700070E060E02AF09A95660F771F881FDAF709
:101B8000880F9695879597F9089557FD9058440FBB
:101B9000551F59F05F3F71F04795880F97FB991FCC
:101BA00061F09F3F79F08795089512161306140689
:101BB000551FF2CF4695F1DF08C016161706180616
:101BC000991FF1CF86957105610508940895E894F1
:101BD000BB2766277727CB0197F908950BD078C0EC
:101BE00069D028F06ED018F0952309F05AC05FC074
:101BF0001124EECFCADFA0F3959FD1F3950F50E0EB
:101C0000551F629FF001729FBB27F00DB11D639FAE
:101C1000AA27F00DB11DAA1F649F6627B00DA11D54
:101C2000661F829F2227B00DA11D621F739FB00DFA
:101C3000A11D621F839FA00D611D221F749F33276A
:101C4000A00D611D231F849F600D211D822F762F03
:101C50006A2F11249F5750408AF0E1F088234AF000
:101C6000EE0FFF1FBB1F661F771F881F915050404C
:101C7000A9F79E3F510570F014C0AACF5F3FECF367
:101C8000983EDCF3869577956795B795F795E79538
:101C90009F5FC1F7FE2B880F911D9695879597F949
:101CA000089597F99F6780E870E060E008959FEFDE
:101CB00080EC089500240A941616170618060906E3
:101CC000089500240A9412161306140605060895B2
:101CD000092E0394000C11F4882352F0BB0F40F43A
:101CE000BF2B11F460FF04C06F5F7F4F8F4F9F4F7A
:101CF0000895DB018F939F9341D0BF91AF91A29F35
:101D0000800D911DA39F900DB29F900D11240895F9
:101D1000AA1BBB1B51E107C0AA1FBB1FA617B70711
:101D200010F0A61BB70B881F991F5A95A9F780952D
:101D30009095BC01CD010895A1E21A2EAA1BBB1BF0
:101D4000FD010DC0AA1FBB1FEE1FFF1FA217B30787
:101D5000E407F50720F0A21BB30BE40BF50B661F9D
:101D6000771F881F991F1A9469F760957095809561
:101D700090959B01AC01BD01CF0108957FD0A59F37
:101D8000900DB49F900DA49F800D911D1124089576
:101D90002F923F924F925F926F927F928F929F927B
:101DA000AF92BF92CF92DF92EF92FF920F931F9369
:101DB000CF93DF93CDB7DEB7CA1BDB0B0FB6F8941A
:101DC000DEBF0FBECDBF09942A88398848885F845A
:101DD0006E847D848C849B84AA84B984C884DF80CB
:101DE000EE80FD800C811B81AA81B981CE0FD11DAF
:101DF0000FB6F894DEBF0FBECDBFED01089597FB7F
:101E000010F8169400080F93083098F00850232F0C
:101E1000342F452F562F672F782F892F902DF4CFF1
:101E20000594979587957795679557954795379535
:101E300027950A95AAF70F9108950024A7FD00940D
:101E40002A0F301D401D501D601D701D801D901DEE
:101E500008952A153B054C055D056E057F05800735
:101E6000910708950024A7FD00942A173005400526
:101E7000500560057005800590050895A29FB0018A
:101E8000B39FC001A39F700D811D1124911DB29FAE
:101E9000700D811D1124911D08950F931F93CF93F1
:101EA000DF93869F8001879F100D969F100D112450
:101EB000C8010DD0EC01009721F0A80160E070E0AE
:101EC0004AD1CE01DF91CF911F910F910895CF9309
:101ED000DF938230910510F482E090E0E0910E02F1
:101EE000F0910F0220E030E0A0E0B0E0309739F14F
:101EF0004081518148175907B8F04817590771F4C4
:101F000082819381109729F013969C938E93129758
:101F10002CC090930F0280930E0227C0211531052B
:101F200031F04217530718F0A901DB0101C0EF019E
:101F30009A01BD01DF010280F381E02DD7CF211589
:101F40003105F9F0281B390B2430310580F48A81E2
:101F50009B816115710521F0FB019383828304C08D
:101F600090930F0280930E02FE01329644C0FE0150
:101F7000E20FF31F81939193225031093983288313
:101F80003AC020910C0230910D02232B41F4209194
:101F900022013091230130930D0220930C022091F5
:101FA0002001309121012115310541F42DB73EB7B3
:101FB0004091240150912501241B350BE0910C0226
:101FC000F0910D02E217F307A0F42E1B3F0B281728
:101FD000390778F0AC014E5F5F4F2417350748F0A2
:101FE0004E0F5F1F50930D0240930C02819391930B
:101FF00002C0E0E0F0E0CF01DF91CF910895CF93F0
:10200000DF93009709F487C0FC0132971382128294
:10201000C0910E02D0910F02209781F4208131816E
:10202000280F391F80910C0290910D02821793079F
:1020300079F5F0930D02E0930C026DC0DE0120E013
:1020400030E0AE17BF0750F412964D915C91139794
:102050009D014115510509F1DA01F3CFB383A28344
:1020600040815181840F951F8A179B0771F48D91D0
:102070009C911197840F951F0296918380831296ED
:102080008D919C911397938382832115310529F4B7
:10209000F0930F02E0930E023EC0D9011396FC9319
:1020A000EE9312974D915D91A40FB51FEA17FB07B0
:1020B00079F480819181840F951F0296D901119640
:1020C0009C938E938281938113969C938E93129707
:1020D000E0E0F0E08A819B81009719F0FE01EC01BD
:1020E000F9CFCE01029628813981820F931F20916A
:1020F0000C0230910D022817390769F4309729F442
:1021000010920F0210920E0202C013821282D0931C
:102110000D02C0930C02DF91CF910895FC01882736
:102120009927E89421912032E9F3293010F02E30DC
:10213000C8F32B3239F02D3231F4689403C012D039
:10214000820F911D219120532A30C8F31EF49095DF
:1021500081959F4F0895DC0101C06D93415050401F
:10216000E0F708957AE0979F902D879F802D910D3D
:10217000112408950F931F93CF93DF93EC018B01EC
:10218000009731F46115710519F480E090E037C0D3
:102190006EE070E081E090E080DEFC010097A9F342
:1021A00080E883830115110571F01387028781E8A8
:1021B00083838091100290911102892B21F4F09376
:1021C0001102E09310022097C9F0D187C087838164
:1021D000826083838091120290911302892B71F4A3
:1021E000F0931302E0931202809114029091150271
:1021F000892B21F4F0931502E0931402CF01DF91B3
:10220000CF911F910F910895CF93DF93CDB7DEB794
:10221000FE01359661917191AF018091120290910A
:10222000130203D0DF91CF9108952F923F924F92E6
:102230005F926F927F928F929F92AF92BF92CF9256
:10224000DF92EF92FF920F931F93CF93DF93CDB75F
:10225000DEB72C970FB6F894DEBF0FBECDBF7C0162
:102260006B018A01FC0117821682838181FFB0C154
:10227000CE0101964C01F7019381F60193FD859102
:1022800093FF81916F01882309F49EC1853239F44F
:1022900093FD859193FF81916F01853221F4B70100
:1022A00090E0C7D1E8CF512C312C20E02032A0F4AF
:1022B0008B3269F030F4803259F0833269F4206156
:1022C0002CC08D3239F0803339F4216026C0226071
:1022D000246023C0286021C027FD27C030ED380FBF
:1022E0003A3078F426FF06C0FAE05F9E300D1124E4
:1022F000532E13C08AE0389E300D1124332E2062F5
:102300000CC08E3221F426FD5FC1206406C08C36DD
:1023100011F4206802C0883641F4F60193FD8591DE
:1023200093FF81916F018111C1CF982F9F7D9554AB
:10233000933028F40C5F1F4FFFE3F9830DC0833601
:1023400031F0833771F0833509F057C021C0F801AF
:10235000808189830E5F1F4F44244394512C540184
:1023600014C03801F2E06F0E711CF801A080B1803A
:1023700026FF03C0652D70E002C06FEF7FEFC5013F
:102380002C874CD12C0183012C852F77222E16C04F
:102390003801F2E06F0E711CF801A080B18026FFB9
:1023A00003C0652D70E002C06FEF7FEFC5012C8781
:1023B0002AD12C012C852068222E830123FC19C0F0
:1023C000832D90E048165906A0F4B70180E290E012
:1023D00030D13A94F5CFF50127FC859127FE819104
:1023E0005F01B70190E025D131103A94F1E04F1A26
:1023F00051084114510479F7DEC0843611F0893652
:1024000031F5F80127FF07C06081718182819381D6
:102410000C5F1F4F08C060817181882777FD809510
:10242000982F0E5F1F4F2F76B22E97FF09C0909501
:102430008095709561957F4F8F4F9F4F2068B22E8A
:102440002AE030E0A40127D1A82EA81843C0853780
:1024500029F42F7EB22E2AE030E025C0F22FF97F3A
:10246000BF2E8F36C1F018F4883579F0ADC08037B3
:1024700019F0883721F0A8C02F2F2061B22EB4FEAA
:102480000DC08B2D8460B82E09C024FF0AC09F2F79
:102490009660B92E06C028E030E005C020E130E0AB
:1024A00002C020E132E0F801B7FE07C0608171810F
:1024B000828193810C5F1F4F06C06081718180E033
:1024C00090E00E5F1F4FA401E6D0A82EA818FB2DA8
:1024D000FF77BF2EB6FE0BC02B2D2E7FA51450F418
:1024E000B4FE0AC0B2FC08C02B2D2E7E05C07A2C8B
:1024F0002B2D03C07A2C01C0752C24FF0DC0FE01CA
:10250000EA0DF11D8081803311F4297E09C022FF7C
:1025100006C07394739404C0822F867809F0739474
:1025200023FD12C020FF06C05A2C731418F4530C5C
:102530005718732C731460F4B70180E290E02C8775
:1025400078D073942C85F6CF731410F4371801C02B
:10255000312C24FF11C0B70180E390E02C8769D0B3
:102560002C8522FF16C021FF03C088E590E002C041
:1025700088E790E0B7010CC0822F867851F021FDEA
:1025800002C080E201C08BE227FD8DE2B70190E03E
:1025900050D0A51430F4B70180E390E04AD05A94AB
:1025A000F8CFAA94F401EA0DF11D8081B70190E003
:1025B00040D0A110F6CF332009F45DCEB70180E200
:1025C00090E037D03A94F7CFF7018681978102C027
:1025D0008FEF9FEF2C960FB6F894DEBF0FBECDBFE6
:1025E000DF91CF911F910F91FF90EF90DF90CF90EF
:1025F000BF90AF909F908F907F906F905F904F9023
:102600003F902F900895FC0105906150704001109B
:10261000D8F7809590958E0F9F1F0895FC0161500B
:10262000704001900110D8F7809590958E0F9F1FF4
:1026300008950F931F93CF93DF93182F092FEB016A
:102640008B8181FD03C08FEF9FEF20C082FF10C000
:102650004E815F812C813D81421753077CF4E881D4
:10266000F9819F012F5F3F4F39832883108306C074
:10267000E885F985812F0995892B29F72E813F81DE
:102680002F5F3F4F3F832E83812F902FDF91CF917C
:102690001F910F910895FA01AA27283051F1203196
:1026A00081F1E8946F936E7F6E5F7F4F8F4F9F4FE6
:1026B000AF4FB1E03ED0B4E03CD0670F781F891F28
:1026C0009A1FA11D680F791F8A1F911DA11D6A0FF6
:1026D000711D811D911DA11D20D009F468943F91A9
:1026E0002AE0269F11243019305D3193DEF6CF01A8
:1026F0000895462F4770405D4193B3E00FD0C9F76E
:10270000F6CF462F4F70405D4A3318F0495D31FDDA
:102710004052419302D0A9F7EACFB4E0A69597952D
:10272000879577956795BA95C9F700976105710503
:1027300008959B01AC010A2E06945795479537954D
:102740002795BA95C9F7620F731F841F951FA01DA7
:062750000895F894FFCF8C
:102756000210000000000000000000000000000061
:102766000000000000000100000000000000000062
:102776000000160220000A000000000000006400AD
:10278600000000000000E80300000000000054699B
:102796006D655F4D733A20256400523A2575593AA6
:1027A600257500593A256920473A256C7500523A35
:1027B600256C7500593A256C7500256900496E69C6
:0A27C6007469616C697A696E67003E
:00000001FF
