S013000041737369676E6D656E74332E73726563C5
S113000045C0000061C000005FC000005DC000008A
S11300105BC0000059C0000057C0000055C000007C
S113002053C0000051C000004FC000000C94D50C18
S11300304BC0000039C1000047C0000074C100007B
S11300404DC0000041C000003FC000003DC00000A2
S11300500C94890A0C947D0C37C0000035C0000054
S113006033C0000031C000002FC000002DC00000CC
S11300700C94B30A0C94A50C27C0000025C0000002
S11300804AC0000021C000001FC0000011241FBE90
S1130090CFEFD0E4DEBFCDBF11E0A0E0B1E0E0E8F7
S11300A0F6E200E00BBF02C007900D92A837B1073B
S11300B0D9F722E0A8E7B1E001C01D92A431B2074C
S11300C0E1F775D40C943E139BCF82E00E94930811
S11300D0811103C00E94470CF8CF08951F920F921C
S11300E00FB60F9211248F9381E0809397011092A1
S11300F098011092990110929A0110929B0110920A
S11301009C0110929D0110929E018F910F900FBE41
S11301100F901F9018951F920F920FB60F921124F3
S11301200BB60F928F929F92AF92BF92CF92DF92B3
S1130130EF92FF920F931F932F933F934F935F93ED
S11301406F937F938F939F93AF93BF93CF93DF93DB
S1130150EF93FF9320919F013091A0014091A10161
S11301605091A2016091A3017091A4018091A50115
S11301709091A601A1E00E94A90E20939F013093C3
S1130180A0014093A1015093A2016093A301709335
S1130190A4018093A5019093A60180909F01909063
S11301A0A001D091A101C091A201B091A301A0919D
S11301B0A401F091A501E091A601209126013091BE
S11301C02701409128015091290160912A017091E1
S11301D02B0180912C0190912D0101E00E94840E4D
S11301E059016A017B018C0194014D2F5C2F6B2F07
S11301F07A2F8F2F9E2F0E94BE0EB8F12091B70147
S11302003091B8014091B9015091BA016091BB019C
S11302107091BC018091BD019091BE01A1E00E944A
S1130220A90E2093B7013093B8014093B9015093BC
S1130230BA016093BB017093BC018093BD0190939C
S1130240BE0110929F011092A0011092A101109280
S1130250A2011092A3011092A4011092A501109280
S1130260A60182B191E0892782B9FF91EF91DF91D4
S1130270CF91BF91AF919F918F917F916F915F913A
S11302804F913F912F911F910F91FF90EF90DF902D
S1130290CF90BF90AF909F908F900F900BBE0F9018
S11302A00FBE0F901F9018951F920F920FB60F92CA
S11302B011242F933F934F935F936F937F938F9367
S11302C09F93AF932091AF013091B0014091B10160
S11302D05091B2016091B3017091B4018091B50164
S11302E09091B601A1E00E94A90E2093AF01309332
S11302F0B0014093B1015093B2016093B301709384
S1130300B4018093B5019093B601AF919F918F9101
S11303107F916F915F914F913F912F910F900FBEFD
S11303200F901F9018951F920F920FB60F921124E1
S11303302F933F934F935F936F937F938F939F93E9
S1130340AF932091AF013091B0014091B101509130
S1130350B2016091B3017091B4018091B5019091A3
S1130360B601A1E00E94A90E2093AF013093B00121
S11303704093B1015093B2016093B3017093B401FF
S11303808093B5019093B601AF919F918F917F9126
S11303906F915F914F913F912F910F900FBE0F90EE
S11303A01F9018952F923F924F925F926F927F9277
S11303B08F929F92AF92BF92CF92DF92EF92FF9271
S11303C00F931F93CF93DF9300D000D01F92CDB72C
S11303D0DEB70091C8011091C901C80102960E94BC
S11303E02310D8012C91243509F452C12A3509F47B
S11303F0ECC0203509F02DC211968C91873409F494
S1130400BCC008F077C0813409F023C20FD560E086
S113041080E02BD5E091B701F091B801A091B9012A
S1130420B091BA01F090BB01E090BC011091BD0104
S11304300091BE018091BF019091C0012091C10142
S11304403091C2014091C3015091C4016091C50132
S11304507091C6010F931F93EF92FF92BF93AF93D6
S1130460FF93EF937F936F935F934F933F932F93F8
S11304709F938F938AE491E09F938F930E949910A6
S113048061E080E0F2D4E091AF01F091B001A0917D
S1130490B101B091B201F090B301E090B4011091B8
S11304A0B5010091B6018091B7019091B8012091F6
S11304B0B9013091BA014091BB015091BC016091E6
S11304C0BD017091BE010F931F93EF92FF92BF93F2
S11304D0AF93FF93EF937F936F935F934F933F9308
S11304E02F939F938F9383E591E09F938F930E9423
S11304F0991065C0823511F1893509F0AAC196D4E5
S113050060E080E0B2D48091B7019091B80120916D
S1130510B9013091BA014091BB015091BC01609185
S1130520BD017091BE017F936F935F934F933F938F
S11305302F939F938F9384E691E03DC077D460E03E
S113054080E093D48091BF019091C0012091C101BA
S11305503091C2014091C3015091C4016091C50121
S11305607091C6017F936F935F934F933F932F9343
S11305709F938F938EE591E01EC058D460E080E095
S113058074D48091AF019091B0012091B101309168
S1130590B2014091B3015091B4016091B5017091E1
S11305A0B6017F936F935F934F933F932F939F93E2
S11305B08F9388E591E09F938F930E9499100FB6D3
S11305C0F894DEBF0FBECDBF44C1D80111968C9103
S11305D0873409F44CC020F5813409F03AC11092F3
S11305E0BF011092C0011092C1011092C201109279
S11305F0C3011092C4011092C5011092C601109259
S1130600B7011092B8011092B9011092BA01109278
S1130610BB011092BC011092BD011092BE0127C013
S11306208235A1F0893509F014C11092B7011092F6
S1130630B8011092B9011092BA011092BB01109244
S1130640BC011092BD011092BE0103C11092BF0102
S11306501092C0011092C1011092C2011092C30104
S11306601092C4011092C5011092C601F2C01092FA
S1130670AF011092B0011092B1011092B201109228
S1130680B3011092B4011092B5011092B601E1C009
S1130690F8012181273409F45CC070F5213409F094
S11306A0D8C04C01809336019092370110923801E2
S11306B01092390110923A0110923B0110923C01C0
S11306C010923D0164E670E00E94940D8B016093EA
S11306D026011093270110922801109229011092EB
S11306E02A0110922B0110922C0110922D0180925C
S11306F02E0190922F0132C02235C9F0293509F01C
S1130700A8C064E670E00E94940D8B0160932601FA
S113071010932701109228011092290110922A01A6
S113072010922B0110922C0110922D0192C08C0179
S113073080933601109337011092380110923901D9
S113074010923A0110923B0110923C0110923D012B
S113075080C08C0180932E0110932F0110923001E0
S1130760109231011092320110923301109234012F
S11307701092350180902E0190902F01E09130016C
S1130780F0913101B0913201A09133018091340193
S11307908C83909135019D839401AF016B2F7A2F47
S11307A001E00E94690E2983232E342E452E562EF5
S11307B0672E782E9A83432D542D652D762D872D03
S11307C002E00E94690E59016A017B018C012981B2
S11307D0322D432D542D652D762D872D9A810E941F
S11307E0A00E59016A017B01782E192F05E00E94A1
S11307F0690E072D0E94B50E59016A017B01782EFE
S1130800192F06E00E94690E072D0E94B50E5401AF
S11308106F01EB2EFA2E0C811D810E94A00EE8EED2
S1130820AE2EF3E0BF2EC12CD12CE12CF12C00E034
S113083010E00E94D60D30938700209386008091AB
S11308408600909187009695879590938900809370
S11308508800E091C801F091C90188E0DF011D9290
S11308608A95E9F70F900F900F900F900F90DF91FA
S1130870CF911F910F91FF90EF90DF90CF90BF9099
S1130880AF909F908F907F906F905F904F903F902C
S11308902F900895CF93C82F893509F454C030F5AB
S11308A0813409F45DC0B8F48D3009F45FC008F4F4
S11308B05EC080ED8C0F8A3008F059C0E091C80109
S11308C0F091C9018781DF01A80FB11D1296CC9365
S11308D08F5F87834CC0803519F118F48734D1F1C8
S11308E046C0823551F1843511F141C08037C1F0E1
S11308F038F48136A9F1873669F18A35C1F50AC021
S11309008437A9F018F48237C1F031C08937D9F09F
S11309108A3769F5E091C801F091C9018AE505C0FB
S1130920E091C801F091C90180E5808320C0E09185
S1130930C801F091C90184E5F8CFE091C801F091B4
S1130940C90182E505C0E091C801F091C90189E5BA
S113095081830DC0E091C801F091C90187E4F8CF0B
S1130960E091C801F091C90181E4F2CF1BDDADDB58
S1130970C093EA0141E06AEE71E082E0CF91BBC727
S113098082E0C1D3E091C7018E1781F0F0E0E65315
S1130990FE4F80817FDF8091C7018F3119F410925F
S11309A0C701EECF8F5F8093C701EACF089581B16D
S11309B0856081B9559AA5D38AE691E09F938F9378
S11309C00E9499108BB190E289278BB982B194E08F
S11309D0892782B982B191E0892782B90F900F905B
S11309E080E590E010929601109295012091950176
S11309F0309196012639384258F42091950130916E
S1130A0096012F5F3F4F3093960120939501EECFCF
S1130A100197009739F78BB190E289278BB982B19E
S1130A2094E0892782B982B191E0892782B9FED105
S1130A3084B5826084BD85B5846085BD8EE487BD40
S1130A4022E020936E0010929000809191008B60C0
S1130A508093910082E19AE79093990080939800A3
S1130A60209371008091800082688093800080913F
S1130A7081008D61809381008BE49CE490938700D6
S1130A808093860080918600909187009695879543
S1130A90909389008093880083E080936F0078941A
S1130AA040E855E260E070E082E043D640E26AEC60
S1130AB071E082E02CD568E070E081E090E00E9473
S1130AC0E20E9093C9018093C801C4E0209197017C
S1130AD0309198014091990150919A0160919B0144
S1130AE070919C0180919D0190919E01A0E00E94D3
S1130AF0C70E09F49BC02091A7013091A801409131
S1130B00A9015091AA016091AB017091AC0180914F
S1130B10AD019091AE01A1E00E94A90E2093A7011E
S1130B203093A8014093A9015093AA016093AB01AB
S1130B307093AC018093AD019093AE017090A701C6
S1130B408090A8019090A901D091AA01B091AB0125
S1130B50A091AC01F091AD01E091AE01209136017C
S1130B6030913701409138015091390160913A0137
S1130B7070913B0180913C0190913D0101E00E9404
S1130B80840E59016A017B018C01272D382D492DD2
S1130B905D2F6B2F7A2F8F2F9E2F0E94BE0EB0F1E8
S1130BA082B18C2782B92091BF013091C00140915C
S1130BB0C1015091C2016091C3017091C40180913F
S1130BC0C5019091C601A1E00E94A90E2093BF0126
S1130BD03093C0014093C1015093C2016093C3019B
S1130BE07093C4018093C5019093C6011092A7012C
S1130BF01092A8011092A9011092AA011092AB01BF
S1130C001092AC011092AD011092AE0110929701B6
S1130C10109298011092990110929A0110929B01DE
S1130C2010929C0110929D0110929E0130D6A8DE74
S1130C304DCF80E090E0089581E090E06F9364E010
S1130C406A95F1F76F910197C9F708950F931F9370
S1130C50CF93DF9317B13D982898299AC0E0D0E04C
S1130C60EBDF2A9AE9DF06B12A98E6DF2A9AE4DF65
S1130C702A98249605FF10C09E0140E050E0809120
S1130C807C0190917D01A0917E01B0917F01281794
S1130C9039074A075B0720F39E0140E050E080914A
S1130CA07C0190917D01A0917E01B0917F01281774
S1130CB039074A075B0728F082E390E0A0E0B0E040
S1130CC004C080E395E7A0E0B0E080937C019093BA
S1130CD07D01A0937E01B0937F0117B9DF91CF917D
S1130CE01F910F91089528B190E08F709070880F34
S1130CF0991F880F991F237C282B28B92A9A9CDFD7
S1130D002A989ACFA2E0B0E0E7E8F6E0B8C7182F37
S1130D104A83698357D09ADFF7B008B1299869816B
S1130D204A81662311F0289A01C0289887B18C6300
S1130D3087B9413021F0812F82958F70D4DF812FC4
S1130D408F70D1DFF7B808B92296E5E0B4C760E048
S1130D5042E0D8CF61E042E0D5CF60E041E0D2CFBD
S1130D603D98459A80E395E7A0E0B0E080937C014C
S1130D7090937D01A0937E01B0937F01209A219AE4
S1130D80229A8EE190E058D683E0E7DF86E090E097
S1130D9053D683E0E2DF82E090E04ED683E0DDDFED
S1130DA082E090E049D682E0D8DF82E090E044D649
S1130DB088E2CDDF88E0CBDF81E0C9DF86E0C7DFF2
S1130DC08CE0C5CF80918001882321F481E0809359
S1130DD08001C6CF089581E0BADF809178019091B7
S1130DE07901009711F1A0E0B0E208C0E091780128
S1130DF0F0917901E20FF31FB083AF5F2A2F30E047
S1130E008091000190E001976091010170E0869F5C
S1130E10A001879F500D969F500D1124241735076C
S1130E202CF310927B0110927A010895D4CF089587
S1130E30A5E0B0E0EDE1F7E024C7182F80E889834E
S1130E4080EC8A8384E98B8384ED8C83FE01E60F36
S1130E50F11D8181810F6D837ADF10937B016D8198
S1130E6060937A012596E3E028C7E2CF0895A0E0D5
S1130E70B0E0ECE3F7E000C7D82E809178019091C0
S1130E807901009709F4F2C02D2D2A3009F442C0EB
S1130E902830C9F480917B01815080937B018F3F7E
S1130EA051F480917A01815080937A0180910101FB
S1130EB0815080937B0180917A018F3F09F0D1C0EA
S1130EC010927A01CCC08D2D45DF80917A01882360
S1130ED0B9F090E001974091010150E0849F9001A6
S1130EE0859F300D949F300D112480917B01E091FA
S1130EF07801F0917901E20FF31FE80FF11DD08220
S1130F0080917B018F5F80937B0190910101891710
S1130F1009F0ACC040917A01242F30E080910001A7
S1130F2090E001972817390709F096C0C0E0D0E097
S1130F303FC080E06C2F7CDFCC248E010F5F1F4FFD
S1130F4032C0EC2CFF2430E0C29FC001C39F900D3F
S1130F50D29F900D1124E0917801F0917901EE0D6A
S1130F60FF1DE80FF91F8081F5DE809178019091D3
S1130F7079012091010130E0C29FF001C39FF00D7F
S1130F80D29FF00D11248E0D9F1DE80FF91F029FB3
S1130F90D001039FB00D129FB00D1124A80FB91FEB
S1130FA08C918083C39420910101C21650F2E80110
S1130FB060910001862F90E00297C817D9070CF4BE
S1130FC0B8CF6230D0F1625080E032DF00E010E24E
S1130FD030C0C02FD0E08091000190E0029750E033
S1130FE0849F9001859F300D949F300D1124E091D2
S1130FF07801F0917901EC0FFD1FE20FF31F80815E
S1131000A9DE8091000190E002974091010150E037
S1131010849F9001859F300D949F300D1124E091A1
S11310207801F0917901EC0FFD1FE20FF31F10839B
S11310300F5F40910101041760F26091000161505B
S113104080E0F6DE10E003C080E284DE1F5F809162
S113105001011817C8F303C04F5F40937A0110923F
S11310607B0180917B0160917A01E2DE2D2D332793
S113107027FD3095C901CDB7DEB7E8E019C68091E8
S1131080780190917901009709F04ED720910001E1
S113109030E0215030408091010190E0AC01249F68
S11310A0C001259F900D349F900D1124A5D69093D7
S11310B0790180937801009719F1A0E0B0E208C0AB
S11310C0E0917801F0917901E20FF31FB083AF5FF3
S11310D02A2F30E08091000190E001976091010196
S11310E070E0869FA001879F500D969F500D11249C
S11310F0241735072CF387E397E069E176E0CFC73F
S11311000895BDCF0895282F30E0F901EE0FFF1F99
S113111043E0220F331F4A95E1F7E20FF31FEE5F1E
S1131120FE4F82810895282F30E0F901EE0FFF1F52
S113113073E0220F331F7A95E1F7E20FF31FEE5F9E
S1131140FE4F4181282F30E0F901EE0FFF1F53E0DD
S1131150220F331F5A95E1F7E20FF31FEE5FFE4FA4
S113116081E09381491380E00895282F30E0F9014C
S1131170EE0FFF1FB3E0220F331FBA95E1F7E20F22
S1131180F31FEE5FFE4F408551854115510509F46B
S113119052C0282F30E0F901EE0FFF1F73E0220F39
S11311A0331F7A95E1F7E20FF31FEE5FFE4F728172
S11311B0282F30E0F901EE0FFF1FB3E0220F331F99
S11311C0BA95E1F7E20FF31FEE5FFE4F94817917B2
S11311D090F5282F30E0F901EE0FFF1F73E0220F86
S11311E0331F7A95E1F7E20FF31FEE5FFE4F928112
S11311F0490F511DFA016083282F30E0F901EE0FE9
S1131200FF1F53E0220F331F5A95E1F7E20FF31F3C
S1131210EE5FFE4F92819F5F282F30E0F901EE0FC1
S1131220FF1FB3E0220F331FBA95E1F7E20FF31F5C
S1131230EE5FFE4F9283282F30E0F901EE0FFF1F7F
S113124073E0220F331F7A95E1F7E20FF31FEE5F8D
S1131250FE4F4281282F30E0F901EE0FFF1F53E0CB
S1131260220F331F5A95E1F7E20FF31FEE5FFE4F93
S11312709481491701F5282F30E0F901EE0FFF1F83
S113128093E0220F331F9A95E1F7E20FF31FEE5F0D
S1131290FE4F9581992379F0282F30E0F901EE0F64
S11312A0FF1FB3E0220F331FBA95E1F7E20FF31FDC
S11312B0EE5FFE4F128208950F931F93182F823012
S11312C009F474C0882319F4E1ECF0E002C0E9ECFD
S11312D0F0E080818F778083812F90E0FC01EE0F16
S11312E0FF1F03E0880F991F0A95E1F7E80FF91F24
S11312F0EE5FFE4F808591850097A1F1212F30E0AC
S1131300F901EE0FFF1FA3E0220F331FAA95E1F7A7
S1131310E20FF31FEE5FFE4F9281212F30E0F901BF
S1131320EE0FFF1F63E0220F331F6A95E1F7E20F10
S1131330F31FEE5FFE4F84819817A0F4112319F474
S1131340E0ECF0E002C0E8ECF0E0808187FF0AC046
S1131350112319F4E6ECF0E002C0EEECF0E0608159
S1131360812F03DF212F30E0F901EE0FFF1F43E04F
S1131370220F331F4A95E1F7E20FF31FEE5FFE4F92
S11313808081882309F057C0112319F4E1ECF0E0BF
S113139002C0E9ECF0E08081806880834CC08091D9
S11313A01B01882319F01092180145C080911E0179
S11313B090911F01009709F43EC09091180180910B
S11313C01A019817C0F580918101882399F439D3C3
S11313D08093810110E00AC031D3E02FF0E031970F
S11313E0E11BF109EE57FE4F80831F5F00918101DD
S11313F0101790F3A0918101AA23E9F080911801BC
S1131400E0911E01F0911F01E80FF11DA150A0937E
S11314108101B0E0AE57BE4F8C918083809118015A
S11314208F5F809318019091180180911A01981789
S113143009F0BCCFB4CF1F910F910895823051F0C1
S1131440882319F4E1ECF0E002C0E9ECF0E09081CB
S11314509F779083A82FB0E0FD01EE0FFF1F53E0AC
S1131460AA0FBB1F5A95E1F7EA0FFB1FEE5FFE4F71
S113147071876087682F70E0FB01EE0FFF1F93E018
S1131480660F771F9A95E1F7E60FF71FEE5FFE4FA1
S11314901282682F70E0FB01EE0FFF1FA3E0660FBE
S11314A0771FAA95E1F7E60FF71FEE5FFE4F44831F
S11314B0482F50E0FA01EE0FFF1F63E0440F551F61
S11314C06A95E1F7E40FF51FEE5FFE4F2583823046
S11314D0D9F0282F30E0F901EE0FFF1F43E0220F6F
S11314E0331F4A95E1F7E20FF31FEE5FFE4F908141
S11314F0992351F4882319F4E1ECF0E002C0E9ECFB
S1131500F0E0808180688083089521E097CFFDCF4B
S113151008951F920F920FB60F920BB60F921124DB
S11315202F933F934F935F936F937F938F939F93E7
S1131530AF93BF93EF93FF936091C60080E015DEF5
S1131540FF91EF91BF91AF919F918F917F916F9197
S11315505F914F913F912F910F900BBE0F900FBE53
S11315600F901F9018951F920F920FB60F920BB603
S11315700F9211242F933F934F935F936F937F9315
S11315808F939F93AF93BF93EF93FF936091CE009C
S113159081E0EBDDFF91EF91BF91AF919F918F912E
S11315A07F916F915F914F913F912F910F900BBE5F
S11315B00F900FBE0F901F901895882319F4E1EC3B
S11315C0F0E002C0E9ECF0E080818062808308955D
S11315D0882319F4E1ECF0E002C0E9ECF0E080814A
S11315E08F7D80830895282F30E0F901EE0FFF1FCF
S11315F093E0220F331F9A95E1F7E20FF31FEE5F9A
S1131600FE4F268137812115310591F1282F30E0D5
S1131610F901EE0FFF1FA3E0220F331FAA95E1F794
S1131620E20FF31FEE5FFE4F4181282F30E0F901F6
S1131630EE0FFF1F63E0220F331F6A95E1F7E20FFD
S1131640F31FEE5FFE4F9381491790F4282F30E08B
S1131650F901EE0FFF1F43E0220F331F4A95E1F714
S1131660E20FF31FEE5FFE4F9081992309F4A5CF9B
S1131670AFCF823029F1282F30E0F901EE0FFF1FA0
S113168053E0220F331F5A95E1F7E20FF31FEE5F89
S1131690FE4F9081992349F4882319F4E1ECF0E09A
S11316A002C0E9ECF0E098E908C0882319F4E1EC01
S11316B0F0E002C0E9ECF0E098E1908394DF7894E4
S11316C00895882319F0813029F402C080E0D1CF35
S11316D081E0CFCF0895A0E0B0E0E0E7FBE0CDC229
S11316E0D82E7A018B01EDDF8D2D8230F1F0DD20D3
S11316F019F4C4ECD0E002C0CCECD0E0C801B701CE
S113170028EF3FEF4FEF5FEF00D26050734D8E4CE8
S11317109E4FA8019701E4E0220F331F441F551F79
S1131720EA95D1F715D239832883CDB7DEB7E7E040
S1131730C0C2D1CF0895282F30E0F901EE0FFF1F6A
S113174073E0220F331F7A95E1F7E20FF31FEE5F88
S1131750FE4F468157814115510509F465C0282F74
S113176030E0F901EE0FFF1F93E0220F331F9A952B
S1131770E1F7E20FF31FEE5FFE4F6181282F30E0A7
S1131780F901EE0FFF1FA3E0220F331FAA95E1F723
S1131790E20FF31FEE5FFE4F9381691708F044C018
S11317A0882319F4E0ECF0E002C0E8ECF0E090816A
S11317B095FF3AC0882319F4A6ECB0E002C0AEEC61
S11317C0B0E0282F30E0F901EE0FFF1F63E0220F95
S11317D0331F6A95E1F7E20FF31FEE5FFE4F91812D
S11317E0490F511DFA0190819C93282F30E0F90193
S11317F0EE0FFF1F93E0220F331F9A95E1F7E20FDC
S1131800F31FEE5FFE4F91819F5F282F30E0F901B7
S1131810EE0FFF1FA3E0220F331FAA95E1F7E20F9B
S1131820F31FEE5FFE4F9183DECE1F93182F82309D
S113183021F0CEDE812F7FDF1CC080911C019091AE
S11318401D010097B1F03091170120911901321751
S113185080F406C0809117018F5F80931701EDCF4C
S113186020911701820F911DFC018081EED0882305
S113187089F71F91089580E0D8DF81E0D6DF82E008
S1131880D4DF80E019DD81E017DD82E015CDF3CFF0
S11318900895282F30E0F901EE0FFF1F93E0220F87
S11318A0331F9A95E1F7E20FF31FEE5FFE4F778344
S11318B06683282F30E0F901EE0FFF1FA3E0220F0B
S11318C0331FAA95E1F7E20FF31FEE5FFE4F11827B
S11318D0282F30E0F901EE0FFF1F63E0220F331FC2
S11318E06A95E1F7E20FF31FEE5FFE4F4383823008
S11318F009F079CE0895CDCF08951F920F920FB6B7
S11319000F920BB60F9211242F933F934F935F9333
S11319106F937F938F939F93AF93BF93EF93FF93B3
S113192080E009DFFF91EF91BF91AF919F918F917B
S11319307F916F915F914F913F912F910F900BBECB
S11319400F900FBE0F901F9018951F920F920FB615
S11319500F920BB60F9211242F933F934F935F93E3
S11319606F937F938F939F93AF93BF93EF93FF9363
S113197081E0E1DEFF91EF91BF91AF919F918F9153
S11319807F916F915F914F913F912F910F900BBE7B
S11319900F900FBE0F901F9018956F9364E06A9597
S11319A0F1F76F910197C9F708952F928F939F9341
S11319B02FB680918B0190918C01019680938B01BD
S11319C090938C0190E080918D01891F80938D010B
S11319D0909193019C5F9093930180919201805127
S11319E09742C0F0909393018093920180918E016D
S11319F090918F01019680938E0190938F0190E0D6
S1131A0080919001891F8093900180919101891F99
S1131A10809391012FBE9F918F912F901895CF9312
S1131A20DF93EC0104C088EE93E0B7DF21972097A1
S1131A30D1F7DF91CF910895F2CF08958FEF64E04D
S1131A4041C083E867E03ED0F9CF1F93182F982F49
S1131A509095991F9927991F85E8891B65E032D0D5
S1131A60812F8F7765E02ED01F9108956F9364E0E6
S1131A706A95F1F76F910197C9F70895A1E0B0E075
S1131A80E3E4FDE0FEC0182F249908C02C9906C099
S1131A902C9A8EE190E06983E9DF698184B1806AE0
S1131AA084B92698812F837080656C7A862B8CBDCF
S1131AB081E012FF80E08DBD81E090E0B0DF2196EF
S1131AC0E3E0FBC00F931F93082F162F0CB406FC02
S1131AD003C080E064E0D2DF0CB404FC03C08CB526
S1131AE080618CBD0EBD03C00CB404FE0AC00DB4ED
S1131AF007FEFACF112319F0812F90E0B7DF8EB5DE
S1131B0001C080E01F910F910895DB018F939F9393
S1131B1041D0BF91AF91A29F800D911DA39F900DC5
S1131B20B29F900D11240895AA1BBB1B51E107C05D
S1131B30AA1FBB1FA617B70710F0A61BB70B881F59
S1131B40991F5A95A9F780959095BC01CD010895E8
S1131B50A1E21A2EAA1BBB1BFD010DC0AA1FBB1FAD
S1131B60EE1FFF1FA217B307E407F50720F0A21B1F
S1131B70B30BE40BF50B661F771F881F991F1A948C
S1131B8069F760957095809590959B01AC01BD01B6
S1131B90CF01089508D1A59F900DB49F900DA49FE7
S1131BA0800D911D11240895689401C0E8948F92CA
S1131BB09F92CF93DF9305D0DF91CF919F908F9029
S1131BC0089588249924F401E401B0E49F93AA279A
S1131BD09A158B049C04ED05FE05CF05D007A107DB
S1131BE098F4AD2FDC2FCF2FFE2FE92D982C892EC2
S1131BF0982F872F762F652F542F432F322F22278C
S1131C00B85031F7BF9127C01B2EBF91BB27220FBD
S1131C10331F441F551F661F771F881F991F881C79
S1131C20991CEE1FFF1FCC1FDD1FAA1FBB1F8A14A8
S1131C309B04EC05FD05CE05DF05A007B10748F0C0
S1131C408A189B08EC09FD09CE09DF09A00BB10B2A
S1131C5021601A94E1F62EF49401AF01BE01CD0186
S1131C60000C08952F923F924F925F926F927F9251
S1131C708F929F92AF92BF92CF92DF92EF92FF9298
S1131C800F931F93CF93DF93CDB7DEB7CA1BDB0B44
S1131C900FB6F894DEBF0FBECDBF09942A883988E9
S1131CA048885F846E847D848C849B84AA84B984F0
S1131CB0C884DF80EE80FD800C811B81AA81B981FC
S1131CC0CE0FD11D0FB6F894DEBF0FBECDBFED0110
S1131CD008950F93083090F0982F872F762F652F53
S1131CE0542F432F322F22270850F4CF220F331FB3
S1131CF0441F551F661F771F881F991F0A95B2F747
S1131D000F91089597FB10F8169400080F9308306C
S1131D1098F00850232F342F452F562F672F782FF4
S1131D20892F902DF4CF059497958795779567958E
S1131D3057954795379527950A95AAF70F910895D2
S1131D402A0D3B1D4C1D5D1D6E1D7F1D801F911FA7
S1131D5008950024A7FD00942A0F301D401D501D36
S1131D60601D701D801D901D08952A193B094C09A2
S1131D705D096E097F09800B910B08952A153B05B7
S1131D804C055D056E057F058007910708950024C5
S1131D90A7FD00942A17300540055005600570051D
S1131DA0800590050895A29FB001B39FC001A39F31
S1131DB0700D811D1124911DB29F700D811D112480
S1131DC0911D08950F931F93CF93DF93869F8001F6
S1131DD0879F100D969F100D1124C8010DD0EC01A2
S1131DE0009721F0A80160E070E04AD1CE01DF91B4
S1131DF0CF911F910F910895CF93DF938230910576
S1131E0010F482E090E0E0910C02F0910D0220E0E9
S1131E1030E0A0E0B0E0309739F1408151814817BB
S1131E205907B8F04817590771F4828193811097C4
S1131E3029F013969C938E9312972CC090930D02C5
S1131E4080930C0227C02115310531F04217530746
S1131E5018F0A901DB0101C0EF019A01BD01DF0106
S1131E600280F381E02DD7CF21153105F9F0281B2D
S1131E70390B2430310580F48A819B816115710509
S1131E8021F0FB019383828304C090930D0280931D
S1131E900C02FE01329644C0FE01E20FF31F81934F
S1131EA0919322503109398328833AC020910A0240
S1131EB030910B02232B41F4209122013091230114
S1131EC030930B0220930A022091200130912101CA
S1131ED02115310541F42DB73EB7409124015091AD
S1131EE02501241B350BE0910A02F0910B02E21745
S1131EF0F307A0F42E1B3F0B2817390778F0AC0129
S1131F004E5F5F4F2417350748F04E0F5F1F509305
S1131F100B0240930A028193919302C0E0E0F0E047
S1131F20CF01DF91CF910895CF93DF93009709F408
S1131F3087C0FC01329713821282C0910C02D091A7
S1131F400D02209781F420813181280F391F80915F
S1131F500A0290910B028217930779F5F0930B0212
S1131F60E0930A026DC0DE0120E030E0AE17BF0747
S1131F7050F412964D915C9113979D0141155105B2
S1131F8009F1DA01F3CFB383A28340815181840F35
S1131F90951F8A179B0771F48D919C911197840F5B
S1131FA0951F02969183808312968D919C9113972D
S1131FB0938382832115310529F4F0930D02E09374
S1131FC00C023EC0D9011396FC93EE9312974D91E7
S1131FD05D91A40FB51FEA17FB0779F48081918105
S1131FE0840F951F0296D90111969C938E9382813A
S1131FF0938113969C938E931297E0E0F0E08A818C
S11320009B81009719F0FE01EC01F9CFCE010296F5
S113201028813981820F931F20910A0230910B028B
S11320202817390769F4309729F410920D02109299
S11320300C0202C013821282D0930B02C0930A02D4
S1132040DF91CF910895FC0188279927E894219185
S11320502032E9F3293010F02E30C8F32B3239F056
S11320602D3231F4689403C012D0820F911D219156
S113207020532A30C8F31EF4909581959F4F0895FC
S1132080DC0101C06D9341505040E0F708957AE0BF
S1132090979F902D879F802D910D112408950F9364
S11320A01F93CF93DF93EC018B01009731F46115FB
S11320B0710519F480E090E037C06EE070E081E0D3
S11320C090E080DEFC010097A9F380E8838301158A
S11320D0110571F01387028781E8838380910E02D2
S11320E090910F02892B21F4F0930F02E0930E02DA
S11320F02097C9F0D187C0878381826083838091D0
S1132100100290911102892B71F4F0931102E09363
S113211010028091120290911302892B21F4F09302
S11321201302E0931202CF01DF91CF911F910F911F
S11321300895CF93DF93CDB7DEB7FE013596619155
S11321407191AF01809110029091110203D0DF913F
S1132150CF9108952F923F924F925F926F927F9208
S11321608F929F92AF92BF92CF92DF92EF92FF92A3
S11321700F931F93CF93DF93CDB7DEB72C970FB692
S1132180F894DEBF0FBECDBF7C016B018A01FC0158
S113219017821682838181FFB0C1CE0101964C0162
S11321A0F7019381F60193FD859193FF81916F016E
S11321B0882309F49EC1853239F493FD859193FFF8
S11321C081916F01853221F4B70190E0C7D1E8CF46
S11321D0512C312C20E02032A0F48B3269F030F401
S11321E0803259F0833269F420612CC08D3239F089
S11321F0803339F4216026C02260246023C0286023
S113220021C027FD27C030ED380F3A3078F426FF7F
S113221006C0FAE05F9E300D1124532E13C08AE0ED
S1132220389E300D1124332E20620CC08E3221F4DE
S113223026FD5FC1206406C08C3611F4206802C0FC
S1132240883641F4F60193FD859193FF81916F01E6
S11322508111C1CF982F9F7D9554933028F40C5F42
S11322601F4FFFE3F9830DC0833631F0833771F0DC
S1132270833509F057C021C0F801808189830E5F3E
S11322801F4F44244394512C540114C03801F2E0EC
S11322906F0E711CF801A080B18026FF03C0652D6C
S11322A070E002C06FEF7FEFC5012C874CD12C0189
S11322B083012C852F77222E16C03801F2E06F0E91
S11322C0711CF801A080B18026FF03C0652D70E069
S11322D002C06FEF7FEFC5012C872AD12C012C851A
S11322E02068222E830123FC19C0832D90E0481618
S11322F05906A0F4B70180E290E030D13A94F5CFCA
S1132300F50127FC859127FE81915F01B70190E0DB
S113231025D131103A94F1E04F1A51084114510477
S113232079F7DEC0843611F0893631F5F80127FFDC
S113233007C060817181828193810C5F1F4F08C047
S113234060817181882777FD8095982F0E5F1F4FDC
S11323502F76B22E97FF09C0909580957095619560
S11323607F4F8F4F9F4F2068B22E2AE030E0A401A8
S113237027D1A82EA81843C0853729F42F7EB22E62
S11323802AE030E025C0F22FF97FBF2E8F36C1F04E
S113239018F4883579F0ADC0803719F0883721F00A
S11323A0A8C02F2F2061B22EB4FE0DC08B2D8460E7
S11323B0B82E09C024FF0AC09F2F9660B92E06C00C
S11323C028E030E005C020E130E002C020E132E046
S11323D0F801B7FE07C060817181828193810C5F2F
S11323E01F4F06C06081718180E090E00E5F1F4F37
S11323F0A401E6D0A82EA818FB2DFF77BF2EB6FEA9
S11324000BC02B2D2E7FA51450F4B4FE0AC0B2FCD1
S113241008C02B2D2E7E05C07A2C2B2D03C07A2CC0
S113242001C0752C24FF0DC0FE01EA0DF11D808151
S1132430803311F4297E09C022FF06C0739473947B
S113244004C0822F867809F0739423FD12C020FF04
S113245006C05A2C731418F4530C5718732C7314A5
S113246060F4B70180E290E02C8778D073942C85D7
S1132470F6CF731410F4371801C0312C24FF11C0A7
S1132480B70180E390E02C8769D02C8522FF16C029
S113249021FF03C088E590E002C088E790E0B7011F
S11324A00CC0822F867851F021FD02C080E201C069
S11324B08BE227FD8DE2B70190E050D0A51430F4F3
S11324C0B70180E390E04AD05A94F8CFAA94F4017B
S11324D0EA0DF11D8081B70190E040D0A110F6CF44
S11324E0332009F45DCEB70180E290E037D03A940E
S11324F0F7CFF7018681978102C08FEF9FEF2C966B
S11325000FB6F894DEBF0FBECDBFDF91CF911F9100
S11325100F91FF90EF90DF90CF90BF90AF909F907E
S11325208F907F906F905F904F903F902F90089581
S1132530FC010590615070400110D8F7809590958A
S11325408E0F9F1F0895FC0161507040019001108F
S1132550D8F7809590958E0F9F1F08950F931F9322
S1132560CF93DF93182F092FEB018B8181FD03C0DB
S11325708FEF9FEF20C082FF10C04E815F812C81BE
S11325803D81421753077CF4E881F9819F012F5F55
S11325903F4F39832883108306C0E885F985812F4E
S11325A00995892B29F72E813F812F5F3F4F3F8368
S11325B02E83812F902FDF91CF911F910F9108953A
S11325C0FA01AA27283051F1203181F1E8946F9360
S11325D06E7F6E5F7F4F8F4F9F4FAF4FB1E03ED006
S11325E0B4E03CD0670F781F891F9A1FA11D680FA4
S11325F0791F8A1F911DA11D6A0F711D811D911DD7
S1132600A11D20D009F468943F912AE0269F11244B
S11326103019305D3193DEF6CF010895462F4770AF
S1132620405D4193B3E00FD0C9F7F6CF462F4F700A
S1132630405D4A3318F0495D31FD4052419302D068
S1132640A9F7EACFB4E0A69597958795779567950E
S1132650BA95C9F700976105710508959B01AC010E
S11326600A2E06945795479537952795BA95C9F735
S1132670620F731F841F951FA01D0895F894FFCF48
S11326800210000000000000000000000000000034
S11326900000000000000100000000000000000035
S11326A00000140220000A00000000000000640082
S11326B0000000000000E80300000000000054696E
S11326C06D655F4D733A20256400523A2575593A79
S11326D0257500593A256920473A256C7500523A08
S11326E0256C7500593A256C7500496E69746961E9
S10B26F06C697A696E67000051
S9030000FC
