:100000000C9446000C9465000C9465000C946500FB
:100010000C9465000C9465000C9465000C946500CC
:100020000C9465000C9465000C9465000C94E3033B
:100030000C9465000C942B010C9465000C946500E5
:100040000C941C010C9465000C9465000C946500E4
:100050000C9465000C9465000C9465000C9465008C
:100060000C9465000C9465000C9465000C9465007C
:100070000C9465000C9465000C9465000C9465006C
:100080000C9465000C9465000C94650011241FBE4F
:10009000CFEFD0E4DEBFCDBF11E0A0E0B1E0E4ECF3
:1000A000F1E100E00BBF02C007900D92AE31B10745
:1000B000D9F721E0AEE1B1E001C01D92A634B2074C
:1000C000E1F70E9467000C94E0080C9400000E9485
:1000D000D8030E945E0280E191E09F938F930E947B
:1000E0000A068AB1D0E28D278AB981B1C5E08C2792
:1000F00081B988EC90E00E942B048AB18D278AB9DF
:1001000081B18C2781B90E945E0214BC15BC10928B
:1001100080001092810084B5826084BD85B58460C2
:1001200085BD8EE487BD82E88093800088E080935F
:10013000810084E690E090938700809386008FEFA3
:100140009FEF909389008093880082E080936E00F7
:1001500078940F900F9084E0782E80913B01882353
:1001600009F460C020913201309133014091340193
:1001700050913501609136017091370180913801BD
:1001800090913901A1E00E9483044901D42FC52F29
:10019000B62FA72FF82FE92F209332019092330129
:1001A00040933401509335016093360170933701C9
:1001B0008093380190933901209108013091090111
:1001C00040910A0150910B0160910C0170910D0159
:1001D00080910E0190910F0101E00E946704590186
:1001E0006A017B018C0194014D2F5C2F6B2F7A2FBC
:1001F0008F2F9E2F0E948F0499F482B1872582B998
:100200001092320110923301109234011092350194
:100210001092360110923701109238011092390174
:1002200010923B0180913A01882309F496CF82B164
:1002300091E0892782B991CF1F920F920FB60F924A
:1002400011248F9381E080933B018F910F900FBE1B
:100250000F901F9018951F920F920FB60F921124B6
:100260008F939F938BB190E289278BB99F918F9148
:100270000F900FBE0F901F90189580E090E00895AA
:1002800081E090E06F9364E06A95F1F76F910197D8
:10029000C9F708950F931F93CF93DF9317B13D983C
:1002A0002898299AC0E0D0E00E9440012A9A0E9432
:1002B000400106B12A980E9440012A9A0E944001FA
:1002C0002A98249605FF10C09E0140E050E08091DE
:1002D000220190912301A0912401B09125012817BA
:1002E00039074A075B0700F39E0140E050E0809128
:1002F000220190912301A0912401B091250128179A
:1003000039074A075B0728F082E390E0A0E0B0E0FD
:1003100004C080E395E7A0E0B0E0809322019093D1
:100320002301A0932401B093250117B9DF91CF9148
:100330001F910F91089528B190E08F709070880FF1
:10034000991F880F991F237C282B28B92A9A0E946D
:1003500040012A980E9440010895A2E0B0E0E3EB3A
:10036000F1E00C943B04182F4A8369830E94280211
:100370000E944A01F7B008B1299869814A81662331
:1003800011F0289A01C0289887B18C6387B9413051
:1003900029F0812F82958F700E949B01812F8F7091
:1003A0000E949B01F7B808B92296E5E00C94570427
:1003B00060E042E00E94AD01089561E042E00E94E9
:1003C000AD01089560E041E00E94AD0108953D98BF
:1003D000459A80E395E7A0E0B0E0809322019093F6
:1003E0002301A0932401B0932501209A219A229AF7
:1003F0008EE190E00E942B0483E00E94E20186E0FF
:1004000090E00E942B0483E00E94E20182E090E0F1
:100410000E942B0483E00E94E20182E090E00E94AF
:100420002B0482E00E94E20182E090E00E942B0413
:1004300088E20E94D80188E00E94D80181E00E94F1
:10044000D80186E00E94D8018CE00E94D80108956E
:1004500080912601882329F481E0809326010E945F
:10046000E701089581E00E94D80180911E019091DA
:100470001F01009711F1A0E0B0E208C0E0911E0159
:10048000F0911F01E20FF31FB083AF5F2A2F30E01E
:100490008091000190E001976091010170E0869FDA
:1004A000A001879F500D969F500D112424173507EA
:1004B0002CF3109221011092200108950E94320223
:1004C0000895A5E0B0E0E7E6F2E00C943D04182FB3
:1004D00080E8898380EC8A8384E98B8384ED8C8334
:1004E000FE01E60FF11D8181810F6D830E94D8010D
:1004F000109321016D81609320012596E3E00C9417
:100500005904A0E0B0E0E7E8F2E00C943804D82EFB
:1005100080911E0190911F01009709F4FAC02D2DC2
:100520002A3009F443C02830C9F480912101815058
:10053000809321018F3F51F480912001815080935D
:10054000200180910101815080932101809120013F
:100550008F3F09F0D8C010922001D3C08D2D0E948A
:10056000DD01809120018823B9F090E0019740914E
:10057000010150E0849F9001859F300D949F300DC4
:10058000112480912101E0911E01F0911F01E20FE1
:10059000F31FE80FF11DD082809121018F5F8093BE
:1005A000210190910101891709F0B3C04091200108
:1005B000242F30E08091000190E00197281739073F
:1005C00009F09CC0C0E0D0E041C080E06C2F0E94E8
:1005D0006102CC248E010F5F1F4F33C0EC2CFF242F
:1005E00030E0C29FC001C39F900DD29F900D112497
:1005F000E0911E01F0911F01EE0DFF1DE80FF91FA4
:1006000080810E94DD0180911E0190911F01209147
:10061000010130E0C29FF001C39FF00DD29FF00DA9
:1006200011248E0D9F1DE80FF91F029FD001039F1B
:10063000B00D129FB00D1124A80FB91F8C918083AB
:10064000C39420910101C21648F2E80160910001B3
:10065000862F90E00297C817D9070CF4B6CF623006
:10066000E0F1625080E00E94610200E010E231C0DF
:10067000C02FD0E08091000190E0029750E0849F6D
:100680009001859F300D949F300D1124E0911E0143
:10069000F0911F01EC0FFD1FE20FF31F80810E94FC
:1006A000DD018091000190E002974091010150E04E
:1006B000849F9001859F300D949F300D1124E0910F
:1006C0001E01F0911F01EC0FFD1FE20FF31F1083BD
:1006D0000F5F40910101041758F2609100016150D1
:1006E00080E00E94610210E004C080E20E94DD010F
:1006F0001F5F809101011817C0F303C04F5F409343
:1007000020011092210180912101609120010E941D
:1007100061022D2D332727FD3095C901CDB7DEB7F6
:10072000E8E00C94540480911E0190911F01009701
:1007300011F00E9430052091000130E0215030403E
:100740008091010190E0AC01249FC001259F900D94
:10075000349F900D11240E94980490931F01809360
:100760001E01009721F1A0E0B0E208C0E0911E0157
:10077000F0911F01E20FF31FB083AF5F2A2F30E02B
:100780008091000190E001976091010170E0869FE7
:10079000A001879F500D969F500D112424173507F7
:1007A0002CF381E892E06DE371E00E94BF050895AB
:1007B0000E94930308956F9364E06A95F1F76F9137
:1007C0000197C9F708952F928F939F932FB6809129
:1007D0002801909129010196809328019093290185
:1007E00090E080912A01891F80932A019091300125
:1007F0009C5F9093300180912F0180519742C0F00F
:100800009093300180932F0180912B0190912C01C6
:10081000019680932B0190932C0190E080912D0103
:10082000891F80932D0180912E01891F80932E01B5
:100830002FBE9F918F912F901895CF93DF93EC014E
:1008400005C088EE93E00E94DB0321972097C9F74B
:10085000DF91CF9108950E941D0408952F923F9239
:100860004F925F926F927F928F929F92AF92BF92C0
:10087000CF92DF92EF92FF920F931F93CF93DF936C
:10088000CDB7DEB7CA1BDB0B0FB6F894DEBF0FBEC9
:10089000CDBF09942A88398848885F846E847D8416
:1008A0008C849B84AA84B984C884DF80EE80FD8018
:1008B0000C811B81AA81B981CE0FD11D0FB6F8948E
:1008C000DEBF0FBECDBFED01089597FB10F8169463
:1008D00000080F93083098F00850232F342F452F2D
:1008E000562F672F782F892F902DF4CF0594979549
:1008F00087957795679557954795379527950A95E5
:10090000AAF70F9108950024A7FD00942A0F301D27
:10091000401D501D601D701D801D901D08952A15DD
:100920003B054C055D056E057F0580079107089521
:10093000CF93DF938230910510F482E090E0E09154
:100940003E01F0913F0120E030E0A0E0B0E03097C0
:1009500039F14081518148175907B8F048175907B4
:1009600071F482819381109729F013969C938E9352
:1009700012972CC090933F0180933E0127C0211510
:10098000310531F04217530718F0A901DB0101C00E
:10099000EF019A01BD01DF010280F381E02DD7CF85
:1009A00021153105F9F0281B390B2430310580F46D
:1009B0008A819B816115710521F0FB0193838283FC
:1009C00004C090933F0180933E01FE01329644C0E3
:1009D000FE01E20FF31F8193919322503109398375
:1009E00028833AC020913C0130913D01232B41F4F2
:1009F000209104013091050130933D0120933C0189
:100A000020910201309103012115310541F42DB7E8
:100A10003EB74091060150910701241B350BE09130
:100A20003C01F0913D01E217F307A0F42E1B3F0BB0
:100A30002817390778F0AC014E5F5F4F2417350750
:100A400048F04E0F5F1F50933D0140933C0181934E
:100A5000919302C0E0E0F0E0CF01DF91CF910895E3
:100A6000CF93DF93009709F487C0FC01329713827C
:100A70001282C0913E01D0913F01209781F42081E4
:100A80003181280F391F80913C0190913D018217DF
:100A9000930779F5F0933D01E0933C016DC0DE01D1
:100AA00020E030E0AE17BF0750F412964D915C91F4
:100AB00013979D014115510509F1DA01F3CFB38375
:100AC000A28340815181840F951F8A179B0771F47F
:100AD0008D919C911197840F951F0296918380832D
:100AE00012968D919C9113979383828321153105E2
:100AF00029F4F0933F01E0933E013EC0D9011396E3
:100B0000FC93EE9312974D915D91A40FB51FEA17D8
:100B1000FB0779F480819181840F951F0296D9019A
:100B200011969C938E938281938113969C938E93BE
:100B30001297E0E0F0E08A819B81009719F0FE01B6
:100B4000EC01F9CFCE01029628813981820F931FE3
:100B500020913C0130913D012817390769F4309705
:100B600029F410923F0110923E0102C013821282BA
:100B7000D0933D01C0933C01DF91CF9108950F9335
:100B80001F93CF93DF93EC018B01009731F4611534
:100B9000710519F480E090E038C06EE070E081E00B
:100BA00090E00E941708FC010097A1F380E883837E
:100BB0000115110571F01387028781E88383809105
:100BC000400190914101892B21F4F0934101E09380
:100BD00040012097C9F0D187C087838182608383D9
:100BE0008091420190914301892B71F4F09343016C
:100BF000E09342018091440190914501892B21F4B9
:100C0000F0934501E0934401CF01DF91CF911F9113
:100C10000F910895CF93DF93CDB7DEB7FE013596E0
:100C200061917191AF0180914201909143010E94C5
:100C30001C06DF91CF9108952F923F924F925F92C1
:100C40006F927F928F929F92AF92BF92CF92DF92DC
:100C5000EF92FF920F931F93CF93DF93CDB7DEB741
:100C60002C970FB6F894DEBF0FBECDBF7C016B0191
:100C70008A01FC0117821682838181FFBDC1CE01EA
:100C800001964C01F7019381F60193FD859193FF45
:100C900081916F01882309F4ABC1853239F493FD4A
:100CA000859193FF81916F01853229F4B70190E01E
:100CB0000E945008E7CF512C312C20E02032A0F4C4
:100CC0008B3269F030F4803259F0833269F420615C
:100CD0002CC08D3239F0803339F4216026C0226077
:100CE000246023C0286021C027FD27C030ED380FC5
:100CF0003A3078F426FF06C0FAE05F9E300D1124EA
:100D0000532E13C08AE0389E300D1124332E2062FA
:100D10000CC08E3221F426FD6BC1206406C08C36D7
:100D200011F4206802C0883641F4F60193FD8591E4
:100D300093FF81916F018111C1CF982F9F7D9554B1
:100D4000933028F40C5F1F4FFFE3F9830DC0833607
:100D500031F0833771F0833509F05BC022C0F801B0
:100D6000808189830E5F1F4F44244394512C54018A
:100D700015C03801F2E06F0E711CF801A080B1803F
:100D800026FF03C0652D70E002C06FEF7FEFC50145
:100D90002C870E9445082C0183012C852F77222E59
:100DA00017C03801F2E06F0E711CF801A080B1800D
:100DB00026FF03C0652D70E002C06FEF7FEFC50115
:100DC0002C870E9433082C012C852068222E830159
:100DD00023FC1BC0832D90E048165906B0F4B701E0
:100DE00080E290E00E9450083A94F4CFF50127FC8D
:100DF000859127FE81915F01B70190E00E94500824
:100E000031103A94F1E04F1A51084114510471F72E
:100E1000E5C0843611F0893639F5F80127FF07C09F
:100E200060817181828193810C5F1F4F08C0608156
:100E30007181882777FD8095982F0E5F1F4F2F7641
:100E4000B22E97FF09C090958095709561957F4F60
:100E50008F4F9F4F2068B22E2AE030E0A4010E94FD
:100E60008208A82EA81844C0853729F42F7EB22EF8
:100E70002AE030E025C0F22FF97FBF2E8F36C1F077
:100E800018F4883579F0B4C0803719F0883721F02C
:100E9000AFC02F2F2061B22EB4FE0DC08B2D846009
:100EA000B82E09C024FF0AC09F2F9660B92E06C035
:100EB00028E030E005C020E130E002C020E132E06F
:100EC000F801B7FE07C060817181828193810C5F58
:100ED0001F4F06C06081718180E090E00E5F1F4F60
:100EE000A4010E948208A82EA818FB2DFF77BF2E10
:100EF000B6FE0BC02B2D2E7FA51450F4B4FE0AC0F5
:100F0000B2FC08C02B2D2E7E05C07A2C2B2D03C0E1
:100F10007A2C01C0752C24FF0DC0FE01EA0DF11DD5
:100F20008081803311F4297E09C022FF06C07394AA
:100F3000739404C0822F867809F0739423FD13C044
:100F400020FF06C05A2C731418F4530C5718732C36
:100F5000731468F4B70180E290E02C870E94500877
:100F600073942C85F5CF731410F4371801C0312C0D
:100F700024FF12C0B70180E390E02C870E94500844
:100F80002C8522FF17C021FF03C088E590E002C036
:100F900088E790E0B7010CC0822F867859F021FDD8
:100FA00002C080E201C08BE227FD8DE2B70190E034
:100FB0000E945008A51438F4B70180E390E00E9425
:100FC00050085A94F7CFAA94F401EA0DF11D8081DC
:100FD000B70190E00E945008A110F5CF332009F42A
:100FE00051CEB70180E290E00E9450083A94F6CFCB
:100FF000F7018681978102C08FEF9FEF2C960FB685
:10100000F894DEBF0FBECDBFDF91CF911F910F913E
:10101000FF90EF90DF90CF90BF90AF909F908F9018
:101020007F906F905F904F903F902F9008950F9317
:101030001F93CF93DF93869F8001879F100D969F0C
:10104000100D1124C8010E949804EC01009729F0AA
:10105000A80160E070E00E943E08CE01DF91CF91D0
:101060001F910F910895FC0105906150704001108F
:10107000D8F7809590958E0F9F1F0895DC0101C0D1
:101080006D9341505040E0F70895FC01615070406D
:1010900001900110D8F7809590958E0F9F1F0895AD
:1010A0000F931F93CF93DF93182F092FEB018B81A1
:1010B00081FD03C08FEF9FEF20C082FF10C04E81E3
:1010C0005F812C813D81421753077CF4E881F981CF
:1010D0009F012F5F3F4F39832883108306C0E88527
:1010E000F985812F0995892B29F72E813F812F5F63
:1010F0003F4F3F832E83812F902FDF91CF911F9100
:101100000F910895FA01AA27283051F1203181F179
:10111000E8946F936E7F6E5F7F4F8F4F9F4FAF4FFF
:10112000B1E03ED0B4E03CD0670F781F891F9A1F12
:10113000A11D680F791F8A1F911DA11D6A0F711DC6
:10114000811D911DA11D20D009F468943F912AE0D2
:10115000269F11243019305D3193DEF6CF010895BA
:10116000462F4770405D4193B3E00FD0C9F7F6CFEB
:10117000462F4F70405D4A3318F0495D31FD4052B3
:10118000419302D0A9F7EACFB4E0A6959795879549
:1011900077956795BA95C9F7009761057105089528
:1011A0009B01AC010A2E06945795479537952795D4
:1011B000BA95C9F7620F731F841F951FA01D08956C
:0411C000F894FFCFD1
:1011C4000210000046012000E803000000000000B7
:0E11D400496E697469616C697A696E67000022
:00000001FF
