S013000041737369676E6D656E74322E73726563C6
S11300000C9446000C9465000C9465000C946500F7
S11300100C9465000C9465000C9465000C946500C8
S11300200C9465000C9465000C9465000C94380ADB
S11300300C9465000C9465000C9465000C946500A8
S11300400C9465000C9465000C9465000C94650098
S11300500C9401080C94DE090C9465000C94650062
S11300600C9465000C9465000C9465000C94650078
S11300700C942C080C94070A0C9465000C946500ED
S11300800C9465000C9465000C94650011241FBE4B
S1130090CFEFD0E4DEBFCDBF11E0A0E0B1E0E8E0F7
S11300A0F0E200E00BBF02C007900D92A436B10746
S11300B0D9F721E0A4E6B1E001C01D92AA3BB20742
S11300C0E1F70E9458010C9402100C94000088304F
S11300D058F491E001C0990F8A95EAF7892FAAE2B2
S11300E0B0E0EBE2F0E031C0803160F498EF980FBB
S11300F081E001C0880F9A95EAF7A4E2B0E0E5E256
S1130100F0E023C0883160F490EF980F81E001C0E3
S1130110880F9A95EAF7A7E2B0E0E8E2F0E015C0AC
S1130120803270F42FE130E0281B310981E001C0F6
S1130130880F2A95EAF7A1E2B0E0E2E2F0E005C018
S113014080E0A0E0B0E0E0E0F0E06F3F19F49081DF
S1130150982709C0662319F09081982B04C0208148
S1130160982F9095922390839C91982B9C9308951B
S11301708B3221F08D3209F441C0089580918E01B3
S1130180882331F0809127018F5F8093270105C078
S1130190809126018F5F80932601809126018B3008
S11301A018F081E080932601809127018B3018F0AC
S11301B081E0809327010E942E03809127011F92E2
S11301C08F9388E291E09F938F930E94260D8AE09B
S11301D090E00E94380D809126011F928F9387E34F
S11301E091E09F938F930E94260D8DB79EB708963A
S11301F00FB6F8949EBF0FBE8DBF089580918E01F7
S1130200882331F08091270181508093270105C014
S113021080912601815080932601809126018111CD
S113022003C08AE08093260180912701811103C0D5
S11302308AE0809327010E942E03809127011F9258
S11302408F9388E291E09F938F930E94260D8AE01A
S113025090E00E94380D809126011F928F9387E3CE
S113026091E09F938F930E94260D8DB79EB70896B9
S11302700FB6F8949EBF0FBE8DBF089582E00E9412
S11302801706E0918F018E1791F0F0E0E057FE4FD2
S1130290808190E00E94B80080918F018F3119F421
S11302A010928F01EBCF8F5F80938F01E7CF08957A
S11302B040E855E260E070E082E00E94200940E2FC
S11302C060E971E082E00E94FE070E94A8040E9497
S11302D02E0385E491E09F938F930E94260D509AFC
S11302E0539A589A5B9A88EE93E00E94800A8BB1E5
S11302F091E089278BB95B9A0E942E038091270194
S11303001F928F9388E291E09F938F930E94260D12
S11303108AE090E00E94380D809126011F928F930D
S113032082E591E09F938F930E94260D8DB79EB72F
S11303300A960FB6F8949EBF0FBE8DBFC0E0D0E002
S113034000E010E0F12CE12CCC24C39488E0B82E1A
S11303500E94DB090E943E018CE20E946C05D82EAB
S11303608CE20E941406D5FE07C0E11004C0589A1E
S1130370EE24E39401C0E12CD2FE07C0F11004C0C6
S11303805B9AFF24F39401C0F12CD3FE07C081E0F3
S113039090918E01911180E080938E01FF2069F08D
S11303A001349BE4190748F06FEF84E10E94670071
S11303B08BB18B258BB900E010E0EE2069F0C134DD
S11303C08BE4D80748F06FEF81E00E9467008BB19F
S11303D08C258BB9C0E0D0E0FF2021F0809126016C
S11303E0080F111DEE2089F080912701C80FD11D3F
S11303F0FF2019F0FF24F394ABCF5B9860E084E115
S11304000E94670000E010E0A3CF589861E081E00B
S11304100E946700C0E0D0E0EBCF80E090E0089558
S113042081E090E06F9364E06A95F1F76F91019732
S1130430C9F708950F931F93CF93DF9317B13D9896
S11304402898299AC0E0D0E00E9410022A9A0E94BB
S1130450100206B12A980E9410022A9A0E941002E1
S11304602A98249605FF10C09E0140E050E0809138
S1130470680190916901A0916A01B0916B012817FC
S113048039074A075B0700F39E0140E050E0809182
S1130490680190916901A0916A01B0916B012817DC
S11304A039074A075B0728F082E390E0A0E0B0E058
S11304B004C080E395E7A0E0B0E0809368019093E6
S11304C06901A0936A01B0936B0117B9DF91CF91D1
S11304D01F910F91089528B190E08F709070880F4C
S11304E0991F880F991F237C282B28B92A9A0E94C8
S11304F010022A980E9410020895A2E0B0E0E3E8F6
S1130500F2E00C947B0B182F4A8369830E94F80253
S11305100E941A02F7B008B1299869814A816623BA
S113052011F0289A01C0289887B18C6387B94130AB
S113053029F0812F82958F700E946B02812F8F701A
S11305400E946B02F7B808B92296E5E00C94970B69
S113055060E042E00E947D02089561E042E00E9472
S11305607D02089560E041E00E947D0208953D9877
S1130570459A80E395E7A0E0B0E08093680190930A
S11305806901A0936A01B0936B01209A219A229A7F
S11305908EE190E00E94800A83E00E94B20286E02D
S11305A090E00E94800A83E00E94B20282E090E020
S11305B00E94800A83E00E94B20282E090E00E94DE
S11305C0800A82E00E94B20282E090E00E94800AE7
S11305D088E20E94A80288E00E94A80281E00E94AA
S11305E0A80286E00E94A8028CE00E94A802089556
S11305F080916C01882329F481E080936C010E942E
S1130600B702089581E00E94A8028091640190914C
S11306106501009711F1A0E0B0E208C0E091640127
S1130620F0916501E20FF31FB083AF5F2A2F30E032
S11306308091000190E001976091010170E0869F34
S1130640A001879F500D969F500D11242417350744
S11306502CF3109267011092660108950E94020320
S11306600895A5E0B0E0E7E3F3E00C947D0B182FC8
S113067080E8898380EC8A8384E98B8384ED8C838E
S1130680FE01E60FF11D8181810F6D830E94A80296
S1130690109367016D81609366012596E3E00C94E5
S11306A0990BA0E0B0E0E7E5F3E00C94780BD82ECA
S11306B08091640190916501009709F4FAC02D2D91
S11306C02A3009F443C02830C9F48091670181506D
S11306D0809367018F3F51F480916601815080932C
S11306E066018091010181508093670180916601C8
S11306F08F3F09F0D8C010926601D3C08D2D0E949F
S1130700AD02809166018823B9F090E00197409191
S1130710010150E0849F9001859F300D949F300D1E
S1130720112480916701E0916401F0916501E20F69
S1130730F31FE80FF11DD082809167018F5F8093D2
S1130740670190910101891709F0B3C040916601D6
S1130750242F30E08091000190E001972817390799
S113076009F09CC0C0E0D0E041C080E06C2F0E9442
S11307703103CC248E010F5F1F4F33C0EC2CFF24B8
S113078030E0C29FC001C39F900DD29F900D1124F1
S1130790E0916401F0916501EE0DFF1DE80FF91F72
S11307A080810E94AD028091640190916501209145
S11307B0010130E0C29FF001C39FF00DD29FF00D04
S11307C011248E0D9F1DE80FF91F029FD001039F76
S11307D0B00D129FB00D1124A80FB91F8C91808306
S11307E0C39420910101C21648F2E801609100010E
S11307F0862F90E00297C817D9070CF4B6CF623061
S1130800E0F1625080E00E94310300E010E231C068
S1130810C02FD0E08091000190E0029750E0849FC7
S11308209001859F300D949F300D1124E091640157
S1130830F0916501EC0FFD1FE20FF31F80810E9410
S1130840AD028091000190E002974091010150E0D7
S1130850849F9001859F300D949F300D1124E09169
S11308606401F0916501EC0FFD1FE20FF31F10838B
S11308700F5F40910101041758F26091000161502B
S113088080E00E94310310E004C080E20E94AD02C7
S11308901F5F809101011817C0F303C04F5F40939D
S11308A066011092670180916701609166010E9460
S11308B031032D2D332727FD3095C901CDB7DEB780
S11308C0E8E00C94940B8091640190916501009789
S11308D011F00E944C0C2091000130E02150304076
S11308E08091010190E0AC01249FC001259F900DEF
S11308F0349F900D11240E94B40B90936501809352
S11309006401009721F1A0E0B0E208C0E091640125
S1130910F0916501E20FF31FB083AF5F2A2F30E03F
S11309208091000190E001976091010170E0869F41
S1130930A001879F500D969F500D11242417350751
S11309402CF381E593E06DE072E00E94DB0C0895E6
S11309500E946304089587B1837D87B988B18C624E
S113096088B985E090E06F9364E06A95F1F76F9140
S11309700197C9F7089580916D01882329F481E0D6
S113098080936D010E94AB040895BF92CF92DF92D1
S1130990EF92FF920F931F93B82EC6B0DC2CD09425
S11309A00E94BA0A7B018C010E94BB0480917901E8
S11309B0813021F1813038F0823009F445C0833030
S11309C009F081C063C02B2D30E04D2D50E04095DF
S11309D05095242335232115310509F474C0CB2007
S11309E0C0927401E0927501F09276010093770150
S11309F01093780181E08093790165C0809175013D
S1130A0090917601A0917701B0917801E81AF90AE2
S1130A100A0B1B0B8FE0E816F1040105110508F41D
S1130A2052C0409174018D2D90E080959095242FB3
S1130A3030E082239323009731F182E0809379019F
S1130A40C422C09274013FC0409174018D2D84234F
S1130A5071F093E09093790180937401E0927501B1
S1130A60F092760100937701109378012CC050E046
S1130A708B2D90E02D2D30E020953095822393230B
S1130A804817590701F1109279011DC08091750131
S1130A9090917601A0917701B0917801E81AF90A52
S1130AA00A0B1B0B8FE0E816F1040105110558F041
S1130AB0809174018D2119F01092790105C092E0A2
S1130AC09093790101C080E01F910F91FF90EF9006
S1130AD0DF90CF90BF9008950E94C5040895CF92EF
S1130AE0DF92EF92FF920F931F93C82ED6B00E940D
S1130AF0BA0A7B018C010E94BB048091730181308E
S1130B0029F1813038F0823009F447C0833009F08C
S1130B1083C065C02C2D30E04D2D50E0409550959C
S1130B20242335232115310509F476C0D094DC2023
S1130B30D0926E01E0926F01F09270010093710106
S1130B401093720181E08093730166C080916F01FC
S1130B5090917001A0917101B0917201E81AF90AA3
S1130B600A0B1B0B8FE0E816F1040105110508F4CC
S1130B7053C040916E018D2D90E080959095242F67
S1130B8030E082239323009739F182E0809373014C
S1130B90D094D422D0926E013FC040916E01842F34
S1130BA08D2171F093E09093730180936E01E09234
S1130BB06F01F092700100937101109372012CC0C7
S1130BC050E08C2D90E02D2D30E02095309582233F
S1130BD093234817590701F1109273011DC08091A6
S1130BE06F0190917001A0917101B0917201E81AA6
S1130BF0F90A0A0B1B0B8FE0E816F1040105110535
S1130C0058F080916E018D2119F01092730105C086
S1130C1092E09093730101C080E01F910F91FF90C7
S1130C20EF90DF90CF9008950E946F050895282FCC
S1130C3030E0F901EE0FFF1F43E0220F331F4A9506
S1130C40E1F7E20FF31FEE5FFE4F82810895282F34
S1130C5030E0F901EE0FFF1FB3E0220F331FBA9506
S1130C60E1F7E20FF31FEE5FFE4F4085518541151A
S1130C70510509F452C0282F30E0F901EE0FFF1F8F
S1130C8073E0220F331F7A95E1F7E20FF31FEE5F53
S1130C90FE4F7281282F30E0F901EE0FFF1FB3E001
S1130CA0220F331FBA95E1F7E20FF31FEE5FFE4FF9
S1130CB09481791790F5282F30E0F901EE0FFF1F8A
S1130CC073E0220F331F7A95E1F7E20FF31FEE5F13
S1130CD0FE4F9281490F511DFA016083282F30E0A5
S1130CE0F901EE0FFF1F53E0220F331F5A95E1F76E
S1130CF0E20FF31FEE5FFE4F92819F5F282F30E0DB
S1130D00F901EE0FFF1FB3E0220F331FBA95E1F78D
S1130D10E20FF31FEE5FFE4F9283282F30E0F901BC
S1130D20EE0FFF1F73E0220F331F7A95E1F7E20FF6
S1130D30F31FEE5FFE4F4281282F30E0F901EE0FE2
S1130D40FF1F53E0220F331F5A95E1F7E20FF31F01
S1130D50EE5FFE4F9481491701F5282F30E0F90129
S1130D60EE0FFF1F93E0220F331F9A95E1F7E20F76
S1130D70F31FEE5FFE4F9581992379F0282F30E021
S1130D80F901EE0FFF1FB3E0220F331FBA95E1F70D
S1130D90E20FF31FEE5FFE4F128208950F931F932D
S1130DA0182F823009F475C0882319F4E1ECF0E0BF
S1130DB002C0E9ECF0E080818F778083812F90E09E
S1130DC0FC01EE0FFF1F03E0880F991F0A95E1F75E
S1130DD0E80FF91FEE5FFE4F808591850097A9F11A
S1130DE0212F30E0F901EE0FFF1FA3E0220F331F84
S1130DF0AA95E1F7E20FF31FEE5FFE4F9281212FD8
S1130E0030E0F901EE0FFF1F63E0220F331F6A95F4
S1130E10E1F7E20FF31FEE5FFE4F84819817A8F409
S1130E20112319F4E0ECF0E002C0E8ECF0E080817A
S1130E3087FF0BC0112319F4E6ECF0E002C0EEECDE
S1130E40F0E06081812F0E942706212F30E0F90114
S1130E50EE0FFF1F43E0220F331F4A95E1F7E20F25
S1130E60F31FEE5FFE4F8081882309F059C01123E0
S1130E7019F4E1ECF0E002C0E9ECF0E08081806874
S1130E8080834EC080911B01882319F010921801B1
S1130E9047C080911E0190911F01009709F440C042
S1130EA09091180180911A019817D0F580917A01D8
S1130EB08823A9F40E94C20A80937A0110E00BC02F
S1130EC00E94BD0AE02FF0E03197E11BF109E558DB
S1130ED0FE4F80831F5F00917A01101788F3A09161
S1130EE07A01AA23E9F080911801E0911E01F091A2
S1130EF01F01E80FF11DA150A0937A01B0E0A5589D
S1130F00BE4F8C918083809118018F5F809318016C
S1130F109091180180911A01981709F0BACFB2CFB5
S1130F201F910F910895823051F0882319F4E1EC58
S1130F30F0E002C0E9ECF0E090819F779083A82F65
S1130F40B0E0FD01EE0FFF1F53E0AA0FBB1F5A953F
S1130F50E1F7EA0FFB1FEE5FFE4F71876087682F92
S1130F6070E0FB01EE0FFF1F93E0660F771F9A9569
S1130F70E1F7E60FF71FEE5FFE4F1282682F70E075
S1130F80FB01EE0FFF1FA3E0660F771FAA95E1F7A1
S1130F90E60FF71FEE5FFE4F4483482F50E0FA013F
S1130FA0EE0FFF1F63E0440F551F6A95E1F7E40F4E
S1130FB0F51FEE5FFE4F25838230D9F0282F30E0F5
S1130FC0F901EE0FFF1F43E0220F331F4A95E1F7AB
S1130FD0E20FF31FEE5FFE4F9081992351F48823B3
S1130FE019F4E1ECF0E002C0E9ECF0E08081806803
S1130FF08083089521E00E94930708950E94FA07D0
S113100008951F920F920FB60F920BB60F921124F0
S11310102F933F934F935F936F937F938F939F93FC
S1131020AF93BF93EF93FF936091C60080E00E945B
S11310302706FF91EF91BF91AF919F918F917F917F
S11310406F915F914F913F912F910F900BBE0F9035
S11310500FBE0F901F9018951F920F920FB60F920C
S11310600BB60F9211242F933F934F935F936F937B
S11310707F938F939F93AF93BF93EF93FF9360916D
S1131080CE0081E00E942706FF91EF91BF91AF91BE
S11310909F918F917F916F915F914F913F912F918C
S11310A00F900BBE0F900FBE0F901F9018958823C2
S11310B019F4E1ECF0E002C0E9ECF0E08081806238
S11310C080830895882319F4E1ECF0E002C0E9EC90
S11310D0F0E080818F7D80830895282F30E0F9012E
S11310E0EE0FFF1F93E0220F331F9A95E1F7E20FF3
S11310F0F31FEE5FFE4F2681378121153105A1F1E3
S1131100282F30E0F901EE0FFF1FA3E0220F331F59
S1131110AA95E1F7E20FF31FEE5FFE4F4181282FFE
S113112030E0F901EE0FFF1F63E0220F331F6A95D1
S1131130E1F7E20FF31FEE5FFE4F93814917A0F42E
S1131140282F30E0F901EE0FFF1F43E0220F331F79
S11311504A95E1F7E20FF31FEE5FFE4F908199236A
S113116019F40E94570808950E9462080895823075
S113117031F1282F30E0F901EE0FFF1F53E0220F69
S1131180331F5A95E1F7E20FF31FEE5FFE4F908194
S1131190992349F4882319F4E1ECF0E002C0E9EC66
S11311A0F0E098E908C0882319F4E1ECF0E002C00B
S11311B0E9ECF0E098E190830E946D08789408953A
S11311C0882319F0813041F404C080E00E94B708FC
S11311D0089581E00E94B7080895A0E0B0E0E3EF2D
S11311E0F8E00C94790BD82E7A018B010E94E00868
S11311F08D2D823001F1DD2019F4C4ECD0E002C061
S1131200CCECD0E0C801B70128EF3FEF4FEF5FEF20
S11312100E94310B6050734D8E4C9E4FA801970174
S1131220E4E0220F331F441F551FEA95D1F70E94B3
S1131230410B39832883CDB7DEB7E7E00C94950BD7
S11312400E94ED080895282F30E0F901EE0FFF1FEA
S113125073E0220F331F7A95E1F7E20FF31FEE5F7D
S1131260FE4F468157814115510509F465C0282F69
S113127030E0F901EE0FFF1F93E0220F331F9A9520
S1131280E1F7E20FF31FEE5FFE4F6181282F30E09C
S1131290F901EE0FFF1FA3E0220F331FAA95E1F718
S11312A0E20FF31FEE5FFE4F9381691708F044C00D
S11312B0882319F4E0ECF0E002C0E8ECF0E090815F
S11312C095FF3AC0882319F4A6ECB0E002C0AEEC56
S11312D0B0E0282F30E0F901EE0FFF1F63E0220F8A
S11312E0331F6A95E1F7E20FF31FEE5FFE4F918122
S11312F0490F511DFA0190819C93282F30E0F90188
S1131300EE0FFF1F93E0220F331F9A95E1F7E20FD0
S1131310F31FEE5FFE4F91819F5F282F30E0F901AC
S1131320EE0FFF1FA3E0220F331FAA95E1F7E20F90
S1131330F31FEE5FFE4F91830E946D0808951F9383
S1131340182F823031F00E946208812F0E942309F5
S11313501DC080911C0190911D010097B9F030913E
S1131360170120911901321788F406C080911701E2
S11313708F5F80931701EDCF20911701820F911D8C
S1131380FC0180810E94C90A882381F71F91089576
S113139080E00E949F0981E00E949F0982E00E94F0
S11313A09F0980E00E94CE0681E00E94CE0682E082
S11313B00E94CE0608950E94C80908951F920F92B4
S11313C00FB60F920BB60F9211242F933F934F93A6
S11313D05F936F937F938F939F93AF93BF93EF9399
S11313E0FF9380E00E942309FF91EF91BF91AF9199
S11313F09F918F917F916F915F914F913F912F9129
S11314000F900BBE0F900FBE0F901F9018951F9258
S11314100F920FB60F920BB60F9211242F933F9396
S11314204F935F936F937F938F939F93AF93BF93E8
S1131430EF93FF9381E00E942309FF91EF91BF9105
S1131440AF919F918F917F916F915F914F913F9158
S11314502F910F900BBE0F900FBE0F901F901895F9
S11314606F9364E06A95F1F76F910197C9F7089556
S11314702F928F939F932FB6809184019091850131
S11314800196809384019093850190E08091860178
S1131490891F8093860190918C019C5F90938C01AD
S11314A080918B0180519742C0F090938C0180937E
S11314B08B01809187019091880101968093870127
S11314C09093880190E080918901891F809389011C
S11314D080918A01891F80938A012FBE9F918F91E9
S11314E02F901895CF93DF93EC0105C088EE93E01D
S11314F00E94300A21972097C9F7DF91CF91089570
S11315000E94720A0895E0E7F0E080818E7F808374
S1131510A0EBB0E08C9183608C93A1EBB0E08C9154
S1131520807F8C938C9182608C93B89A8081816047
S113153080837894089580918D01882329F481E033
S113154080938D010E94830A08950E949B0AE0E71C
S1131550F0E080818E7F8083209187013091880123
S11315604091890150918A01808181608083B90111
S1131570CA0108950E94A50A08958FEF64E00E94AD
S11315800C0B089583E867E00E940C0B0E94BD0ACF
S113159008951F93182F982F9095991F9927991F95
S11315A085E8891B65E00E940C0B812F8F7765E02D
S11315B00E940C0B1F9108956F9364E06A95F1F7F4
S11315C06F910197C9F70895A1E0B0E0EAEEFAE05F
S11315D00C947D0B182F249909C02C9907C02C9AC0
S11315E08EE190E069830E94DC0A698184B1806A9B
S11315F084B92698812F837080656C7A862B8CBD84
S113160081E012FF80E08DBD81E090E00E94720ACB
S11316102196E3E00C94990B0F931F93082F162F38
S11316200CB406FC04C080E064E00E94E40A0CB43C
S113163004FC03C08CB580618CBD0EBD03C00CB42A
S113164004FE0BC00DB407FEFACF112321F0812F45
S113165090E00E94DC0A8EB501C080E01F910F91DA
S11316600895DB018F939F930E94630BBF91AF9109
S1131670A29F800D911DA39F900DB29F900D1124E8
S11316800895A1E21A2EAA1BBB1BFD010DC0AA1FBF
S1131690BB1FEE1FFF1FA217B307E407F50720F0D7
S11316A0A21BB30BE40BF50B661F771F881F991F52
S11316B01A9469F760957095809590959B01AC019B
S11316C0BD01CF0108950E94A50BA59F900DB49F65
S11316D0900DA49F800D911D112408952F923F9287
S11316E04F925F926F927F928F929F92AF92BF922E
S11316F0CF92DF92EF92FF920F931F93CF93DF93DA
S1131700CDB7DEB7CA1BDB0B0FB6F894DEBF0FBE36
S1131710CDBF09942A88398848885F846E847D8483
S11317208C849B84AA84B984C884DF80EE80FD8085
S11317300C811B81AA81B981CE0FD11D0FB6F894FB
S1131740DEBF0FBECDBFED010895A29FB001B39FD0
S1131750C001A39F700D811D1124911DB29F700DB6
S1131760811D1124911D0895CF93DF93823091053B
S113177010F482E090E0E091B201F091B30120E036
S113178030E0A0E0B0E0309739F140815181481752
S11317905907B8F04817590771F48281938110975B
S11317A029F013969C938E9312972CC09093B301B7
S11317B08093B20127C02115310531F04217530738
S11317C018F0A901DB0101C0EF019A01BD01DF019D
S11317D00280F381E02DD7CF21153105F9F0281BC4
S11317E0390B2430310580F48A819B8161157105A0
S11317F021F0FB019383828304C09093B30180930F
S1131800B201FE01329644C0FE01E20FF31F819340
S1131810919322503109398328833AC02091B00131
S11318203091B101232B41F4209122013091230105
S11318303093B1012093B001209120013091210116
S11318402115310541F42DB73EB740912401509143
S11318502501241B350BE091B001F091B101E21791
S1131860F307A0F42E1B3F0B2817390778F0AC01BF
S11318704E5F5F4F2417350748F04E0F5F1F50939C
S1131880B1014093B0018193919302C0E0E0F0E094
S1131890CF01DF91CF910895CF93DF93009709F49F
S11318A087C0FC01329713821282C091B201D09199
S11318B0B301209781F420813181280F391F809151
S11318C0B0019091B1018217930779F5F093B101BA
S11318D0E093B0016DC0DE0120E030E0AE17BF0739
S11318E050F412964D915C9113979D014115510549
S11318F009F1DA01F3CFB383A28340815181840FCC
S1131900951F8A179B0771F48D919C911197840FF1
S1131910951F02969183808312968D919C911397C3
S1131920938382832115310529F4F093B301E09365
S1131930B2013EC0D9011396FC93EE9312974D91D8
S11319405D91A40FB51FEA17FB0779F4808191819B
S1131950840F951F0296D90111969C938E938281D0
S1131960938113969C938E931297E0E0F0E08A8122
S11319709B81009719F0FE01EC01F9CFCE0102968C
S113198028813981820F931F2091B0013091B101D8
S11319902817390769F4309729F41092B30110928B
S11319A0B20102C013821282D093B101C093B0017C
S11319B0DF91CF9108950F931F93CF93DF93EC01A1
S11319C08B01009731F46115710519F480E090E002
S11319D038C06EE070E081E090E00E94390FFC01B5
S11319E00097A1F380E883830115110571F0138733
S11319F0028781E883838091B4019091B501892B9A
S1131A0021F4F093B501E093B4012097C9F0D18794
S1131A10C0878381826083838091B6019091B701EE
S1131A20892B71F4F093B701E093B6018091B8016A
S1131A309091B901892B21F4F093B901E093B80195
S1131A40CF01DF91CF911F910F910895CF93DF9331
S1131A50CDB7DEB7FE01359661917191AF018091EA
S1131A60B6019091B7010E943E0DDF91CF91089588
S1131A706091B6017091B7010C94720F2F923F924E
S1131A804F925F926F927F928F929F92AF92BF928A
S1131A90CF92DF92EF92FF920F931F93CF93DF9336
S1131AA0CDB7DEB72C970FB6F894DEBF0FBECDBF0F
S1131AB07C016B018A01FC0117821682838181FFFC
S1131AC0BDC1CE0101964C01F7019381F60193FD4E
S1131AD0859193FF81916F01882309F4ABC185320D
S1131AE039F493FD859193FF81916F01853229F437
S1131AF0B70190E00E94720FE7CF512C312C20E007
S1131B002032A0F48B3269F030F4803259F0833201
S1131B1069F420612CC08D3239F0803339F42160AE
S1131B2026C02260246023C0286021C027FD27C06E
S1131B3030ED380F3A3078F426FF06C0FAE05F9EA5
S1131B40300D1124532E13C08AE0389E300D112419
S1131B50332E20620CC08E3221F426FD6BC120642A
S1131B6006C08C3611F4206802C0883641F4F601B0
S1131B7093FD859193FF81916F018111C1CF982FBE
S1131B809F7D9554933028F40C5F1F4FFFE3F98336
S1131B900DC0833631F0833771F0833509F05BC0B3
S1131BA022C0F801808189830E5F1F4F442443942F
S1131BB0512C540115C03801F2E06F0E711CF8016C
S1131BC0A080B18026FF03C0652D70E002C06FEFD6
S1131BD07FEFC5012C870E94670F2C0183012C85A0
S1131BE02F77222E17C03801F2E06F0E711CF80116
S1131BF0A080B18026FF03C0652D70E002C06FEFA6
S1131C007FEFC5012C870E94550F2C012C8520687D
S1131C10222E830123FC1BC0832D90E04816590615
S1131C20B0F4B70180E290E00E94720F3A94F4CFCE
S1131C30F50127FC859127FE81915F01B70190E0B2
S1131C400E94720F31103A94F1E04F1A5108411476
S1131C50510471F7E5C0843611F0893639F5F8017D
S1131C6027FF07C060817181828193810C5F1F4FC0
S1131C7008C060817181882777FD8095982F0E5F59
S1131C801F4F2F76B22E97FF09C0909580957095BF
S1131C9061957F4F8F4F9F4F2068B22E2AE030E02E
S1131CA0A4010E94A40FA82EA81844C0853729F4C3
S1131CB02F7EB22E2AE030E025C0F22FF97FBF2E0E
S1131CC08F36C1F018F4883579F0B4C0803719F034
S1131CD0883721F0AFC02F2F2061B22EB4FE0DC083
S1131CE08B2D8460B82E09C024FF0AC09F2F9660F4
S1131CF0B92E06C028E030E005C020E130E002C083
S1131D0020E132E0F801B7FE07C060817181828171
S1131D1093810C5F1F4F06C06081718180E090E069
S1131D200E5F1F4FA4010E94A40FA82EA818FB2D1C
S1131D30FF77BF2EB6FE0BC02B2D2E7FA51450F4BB
S1131D40B4FE0AC0B2FC08C02B2D2E7E05C07A2C2E
S1131D502B2D03C07A2C01C0752C24FF0DC0FE016D
S1131D60EA0DF11D8081803311F4297E09C022FF20
S1131D7006C07394739404C0822F867809F0739418
S1131D8023FD13C020FF06C05A2C731418F4530CFF
S1131D905718732C731468F4B70180E290E02C8711
S1131DA00E94720F73942C85F5CF731410F43718B6
S1131DB001C0312C24FF12C0B70180E390E02C87CE
S1131DC00E94720F2C8522FF17C021FF03C088E5F3
S1131DD090E002C088E790E0B7010CC0822F8678BB
S1131DE059F021FD02C080E201C08BE227FD8DE2A3
S1131DF0B70190E00E94720FA51438F4B70180E394
S1131E0090E00E94720F5A94F7CFAA94F401EA0D5D
S1131E10F11D8081B70190E00E94720FA110F5CFEF
S1131E20332009F451CEB70180E290E00E94720F92
S1131E303A94F6CFF7018681978102C08FEF9FEF26
S1131E402C960FB6F894DEBF0FBECDBFDF91CF91B5
S1131E501F910F91FF90EF90DF90CF90BF90AF90C4
S1131E609F908F907F906F905F904F903F902F90B6
S1131E7008950F931F93CF93DF93869F8001879FCD
S1131E80100D969F100D1124C8010E94B40BEC0193
S1131E90009729F0A80160E070E00E94600FCE0175
S1131EA0DF91CF911F910F910895FC01059061502E
S1131EB070400110D8F7809590958E0F9F1F08955C
S1131EC0DC0101C06D9341505040E0F70895FC01DE
S1131ED06150704001900110D8F7809590958E0F55
S1131EE09F1F08950F931F93CF93DF93182F092FEC
S1131EF0EB018B8181FD03C08FEF9FEF20C082FF38
S1131F0010C04E815F812C813D81421753077CF4C0
S1131F10E881F9819F012F5F3F4F39832883108324
S1131F2006C0E885F985812F0995892B29F72E812B
S1131F303F812F5F3F4F3F832E83812F902FDF916F
S1131F40CF911F910F910895FA01AA27283051F1DA
S1131F50203181F1E8946F936E7F6E5F7F4F8F4FD6
S1131F609F4FAF4FB1E03ED0B4E03CD0670F781F35
S1131F70891F9A1FA11D680F791F8A1F911DA11D1A
S1131F806A0F711D811D911DA11D20D009F4689453
S1131F903F912AE0269F11243019305D3193DEF6FB
S1131FA0CF010895462F4770405D4193B3E00FD0B1
S1131FB0C9F7F6CF462F4F70405D4A3318F0495D9C
S1131FC031FD4052419302D0A9F7EACFB4E0A6957F
S1131FD09795879577956795BA95C9F700976105A1
S1131FE0710508959B01AC010A2E069457954795F7
S1131FF037952795BA95C9F7620F731F841F951FEC
S10B2000A01D0895F894FFCF20
S113200802100000000000000000000000000000B2
S113201800000000000001000000000000000000B3
S11320280000BA01200004015265642053706565FC
S113203864203D2025640047722053706565642040
S11320483D20256400496E697469616C697A696E1A
S11320586700477265656E205370656564203D208E
S107206825640000E7
S9030000FC
